{
  "_format": "hh-sol-artifact-1",
  "contractName": "MessageMain",
  "sourceName": "contracts/MessageMain.sol",
  "address": "0x115623B326c7952940F7cF871e521006c630ff85",
  "abi": [
    {
      "inputs": [
        {
          "internalType": "address",
          "name": "_senderMailbox",
          "type": "address"
        },
        {
          "internalType": "address",
          "name": "_receiverMailbox",
          "type": "address"
        },
        {
          "internalType": "address",
          "name": "_receiverInterchainGasPaymaster",
          "type": "address"
        },
        {
          "internalType": "uint32",
          "name": "_receiverDomainId",
          "type": "uint32"
        }
      ],
      "stateMutability": "nonpayable",
      "type": "constructor"
    },
    {
      "anonymous": false,
      "inputs": [
        {
          "indexed": true,
          "internalType": "address",
          "name": "Executer",
          "type": "address"
        },
        {
          "indexed": false,
          "internalType": "bytes",
          "name": "_result",
          "type": "bytes"
        }
      ],
      "name": "dispatchCallCreated",
      "type": "event"
    },
    {
      "inputs": [],
      "name": "_data",
      "outputs": [
        {
          "internalType": "bytes",
          "name": "",
          "type": "bytes"
        }
      ],
      "stateMutability": "view",
      "type": "function"
    },
    {
      "inputs": [],
      "name": "_deployedAddress",
      "outputs": [
        {
          "internalType": "address",
          "name": "",
          "type": "address"
        }
      ],
      "stateMutability": "view",
      "type": "function"
    },
    {
      "inputs": [],
      "name": "_encodedFunctionData",
      "outputs": [
        {
          "internalType": "bytes",
          "name": "",
          "type": "bytes"
        }
      ],
      "stateMutability": "view",
      "type": "function"
    },
    {
      "inputs": [],
      "name": "_uuid",
      "outputs": [
        {
          "internalType": "bytes32",
          "name": "",
          "type": "bytes32"
        }
      ],
      "stateMutability": "view",
      "type": "function"
    },
    {
      "inputs": [
        {
          "internalType": "uint32",
          "name": "_origin",
          "type": "uint32"
        },
        {
          "internalType": "bytes32",
          "name": "_sender",
          "type": "bytes32"
        },
        {
          "internalType": "bytes",
          "name": "_callData",
          "type": "bytes"
        }
      ],
      "name": "handle",
      "outputs": [],
      "stateMutability": "nonpayable",
      "type": "function"
    },
    {
      "inputs": [],
      "name": "result",
      "outputs": [
        {
          "internalType": "bytes",
          "name": "",
          "type": "bytes"
        }
      ],
      "stateMutability": "view",
      "type": "function"
    },
    {
      "inputs": [],
      "name": "sendResult",
      "outputs": [],
      "stateMutability": "payable",
      "type": "function"
    },
    {
      "inputs": [],
      "name": "success",
      "outputs": [
        {
          "internalType": "bool",
          "name": "",
          "type": "bool"
        }
      ],
      "stateMutability": "view",
      "type": "function"
    },
    {
      "inputs": [],
      "name": "withdraw",
      "outputs": [],
      "stateMutability": "nonpayable",
      "type": "function"
    }
  ],
  "bytecode": "0x60806040523480156200001157600080fd5b5060405162001869380380620018698339818101604052810190620000379190620001cf565b836000806101000a81548173ffffffffffffffffffffffffffffffffffffffff021916908373ffffffffffffffffffffffffffffffffffffffff16021790555082600160006101000a81548173ffffffffffffffffffffffffffffffffffffffff021916908373ffffffffffffffffffffffffffffffffffffffff16021790555081600260006101000a81548173ffffffffffffffffffffffffffffffffffffffff021916908373ffffffffffffffffffffffffffffffffffffffff16021790555080600260146101000a81548163ffffffff021916908363ffffffff1602179055505050505062000241565b600080fd5b600073ffffffffffffffffffffffffffffffffffffffff82169050919050565b6000620001568262000129565b9050919050565b620001688162000149565b81146200017457600080fd5b50565b60008151905062000188816200015d565b92915050565b600063ffffffff82169050919050565b620001a9816200018e565b8114620001b557600080fd5b50565b600081519050620001c9816200019e565b92915050565b60008060008060808587031215620001ec57620001eb62000124565b5b6000620001fc8782880162000177565b94505060206200020f8782880162000177565b9350506040620002228782880162000177565b92505060606200023587828801620001b8565b91505092959194509250565b61161880620002516000396000f3fe6080604052600436106100865760003560e01c806356d5d4751161005957806356d5d47514610123578063653721471461014c57806368beab3f146101775780639a959426146101a2578063bc4d7396146101cd57610086565b80630b93381b1461008b57806312619b86146100b65780631beddccf146100e15780633ccfd60b1461010c575b600080fd5b34801561009757600080fd5b506100a06101d7565b6040516100ad9190610b3c565b60405180910390f35b3480156100c257600080fd5b506100cb6101ea565b6040516100d89190610b98565b60405180910390f35b3480156100ed57600080fd5b506100f6610210565b6040516101039190610bcc565b60405180910390f35b34801561011857600080fd5b50610121610216565b005b34801561012f57600080fd5b5061014a60048036038101906101459190610da9565b6102a8565b005b34801561015857600080fd5b506101616104da565b60405161016e9190610ea0565b60405180910390f35b34801561018357600080fd5b5061018c610568565b6040516101999190610ea0565b60405180910390f35b3480156101ae57600080fd5b506101b76105f6565b6040516101c49190610ea0565b60405180910390f35b6101d5610684565b005b600660149054906101000a900460ff1681565b600660009054906101000a900473ffffffffffffffffffffffffffffffffffffffff1681565b60075481565b60004790506000811161025e576040517f08c379a000000000000000000000000000000000000000000000000000000000815260040161025590610f1f565b60405180910390fd5b3373ffffffffffffffffffffffffffffffffffffffff166108fc829081150290604051600060405180830381858888f193505050501580156102a4573d6000803e3d6000fd5b5050565b60008054906101000a900473ffffffffffffffffffffffffffffffffffffffff1673ffffffffffffffffffffffffffffffffffffffff163373ffffffffffffffffffffffffffffffffffffffff1614610336576040517f08c379a000000000000000000000000000000000000000000000000000000000815260040161032d90610fb1565b60405180910390fd5b600080600080848060200190518101906103509190611094565b9350935093509350600061038c600080604051602001610370919061117b565b6040516020818303038152906040528051906020012086610897565b90506000808273ffffffffffffffffffffffffffffffffffffffff16856040516103b691906111d2565b6000604051808303816000865af19150503d80600081146103f3576040519150601f19603f3d011682016040523d82523d6000602084013e6103f8565b606091505b509150915083600360006101000a81548173ffffffffffffffffffffffffffffffffffffffff021916908373ffffffffffffffffffffffffffffffffffffffff1602179055508460099080519060200190610454929190610a7e565b5082600660006101000a81548173ffffffffffffffffffffffffffffffffffffffff021916908373ffffffffffffffffffffffffffffffffffffffff16021790555080600890805190602001906104ac929190610a7e565b508660078190555081600660146101000a81548160ff02191690831515021790555050505050505050505050565b600580546104e790611218565b80601f016020809104026020016040519081016040528092919081815260200182805461051390611218565b80156105605780601f1061053557610100808354040283529160200191610560565b820191906000526020600020905b81548152906001019060200180831161054357829003601f168201915b505050505081565b6008805461057590611218565b80601f01602080910402602001604051908101604052809291908181526020018280546105a190611218565b80156105ee5780601f106105c3576101008083540402835291602001916105ee565b820191906000526020600020905b8154815290600101906020018083116105d157829003601f168201915b505050505081565b6009805461060390611218565b80601f016020809104026020016040519081016040528092919081815260200182805461062f90611218565b801561067c5780601f106106515761010080835404028352916020019161067c565b820191906000526020600020905b81548152906001019060200180831161065f57829003601f168201915b505050505081565b6000600754600860405160200161069c9291906112de565b60405160208183030381529060405290506000600160009054906101000a900473ffffffffffffffffffffffffffffffffffffffff1673ffffffffffffffffffffffffffffffffffffffff1663fa31de01600260149054906101000a900463ffffffff1661072b600360009054906101000a900473ffffffffffffffffffffffffffffffffffffffff166109a1565b856040518463ffffffff1660e01b815260040161074a9392919061131d565b6020604051808303816000875af1158015610769573d6000803e3d6000fd5b505050506040513d601f19601f8201168201806040525081019061078d919061135b565b905060006107996109c4565b9050600260009054906101000a900473ffffffffffffffffffffffffffffffffffffffff1673ffffffffffffffffffffffffffffffffffffffff166311bf2c188284600260149054906101000a900463ffffffff16620f6848336040518663ffffffff1660e01b815260040161081294939291906113d7565b6000604051808303818588803b15801561082b57600080fd5b505af115801561083f573d6000803e3d6000fd5b50505050503373ffffffffffffffffffffffffffffffffffffffff167f8c8b27ab7e2e151570b9cbd2b7a29218c106d0a7274647f513d72dde2a69c4e08460405161088a9190610ea0565b60405180910390a2505050565b6000834710156108dc576040517f08c379a00000000000000000000000000000000000000000000000000000000081526004016108d390611468565b60405180910390fd5b6000825103610920576040517f08c379a0000000000000000000000000000000000000000000000000000000008152600401610917906114d4565b60405180910390fd5b8282516020840186f59050600073ffffffffffffffffffffffffffffffffffffffff168173ffffffffffffffffffffffffffffffffffffffff160361099a576040517f08c379a000000000000000000000000000000000000000000000000000000000815260040161099190611540565b60405180910390fd5b9392505050565b60008173ffffffffffffffffffffffffffffffffffffffff1660001b9050919050565b6000600260009054906101000a900473ffffffffffffffffffffffffffffffffffffffff1673ffffffffffffffffffffffffffffffffffffffff1663a6929793600260149054906101000a900463ffffffff16620f68486040518363ffffffff1660e01b8152600401610a38929190611560565b602060405180830381865afa158015610a55573d6000803e3d6000fd5b505050506040513d601f19601f82011682018060405250810190610a7991906115b5565b905090565b828054610a8a90611218565b90600052602060002090601f016020900481019282610aac5760008555610af3565b82601f10610ac557805160ff1916838001178555610af3565b82800160010185558215610af3579182015b82811115610af2578251825591602001919060010190610ad7565b5b509050610b009190610b04565b5090565b5b80821115610b1d576000816000905550600101610b05565b5090565b60008115159050919050565b610b3681610b21565b82525050565b6000602082019050610b516000830184610b2d565b92915050565b600073ffffffffffffffffffffffffffffffffffffffff82169050919050565b6000610b8282610b57565b9050919050565b610b9281610b77565b82525050565b6000602082019050610bad6000830184610b89565b92915050565b6000819050919050565b610bc681610bb3565b82525050565b6000602082019050610be16000830184610bbd565b92915050565b6000604051905090565b600080fd5b600080fd5b600063ffffffff82169050919050565b610c1481610bfb565b8114610c1f57600080fd5b50565b600081359050610c3181610c0b565b92915050565b610c4081610bb3565b8114610c4b57600080fd5b50565b600081359050610c5d81610c37565b92915050565b600080fd5b600080fd5b6000601f19601f8301169050919050565b7f4e487b7100000000000000000000000000000000000000000000000000000000600052604160045260246000fd5b610cb682610c6d565b810181811067ffffffffffffffff82111715610cd557610cd4610c7e565b5b80604052505050565b6000610ce8610be7565b9050610cf48282610cad565b919050565b600067ffffffffffffffff821115610d1457610d13610c7e565b5b610d1d82610c6d565b9050602081019050919050565b82818337600083830152505050565b6000610d4c610d4784610cf9565b610cde565b905082815260208101848484011115610d6857610d67610c68565b5b610d73848285610d2a565b509392505050565b600082601f830112610d9057610d8f610c63565b5b8135610da0848260208601610d39565b91505092915050565b600080600060608486031215610dc257610dc1610bf1565b5b6000610dd086828701610c22565b9350506020610de186828701610c4e565b925050604084013567ffffffffffffffff811115610e0257610e01610bf6565b5b610e0e86828701610d7b565b9150509250925092565b600081519050919050565b600082825260208201905092915050565b60005b83811015610e52578082015181840152602081019050610e37565b83811115610e61576000848401525b50505050565b6000610e7282610e18565b610e7c8185610e23565b9350610e8c818560208601610e34565b610e9581610c6d565b840191505092915050565b60006020820190508181036000830152610eba8184610e67565b905092915050565b600082825260208201905092915050565b7f436f6e74726163742062616c616e6365206973207a65726f0000000000000000600082015250565b6000610f09601883610ec2565b9150610f1482610ed3565b602082019050919050565b60006020820190508181036000830152610f3881610efc565b9050919050565b7f4f6e6c79206d61696c626f782063616e2063616c6c20746869732066756e637460008201527f696f6e2021212100000000000000000000000000000000000000000000000000602082015250565b6000610f9b602783610ec2565b9150610fa682610f3f565b604082019050919050565b60006020820190508181036000830152610fca81610f8e565b9050919050565b600081519050610fe081610c37565b92915050565b6000610ff9610ff484610cf9565b610cde565b90508281526020810184848401111561101557611014610c68565b5b611020848285610e34565b509392505050565b600082601f83011261103d5761103c610c63565b5b815161104d848260208601610fe6565b91505092915050565b600061106182610b57565b9050919050565b61107181611056565b811461107c57600080fd5b50565b60008151905061108e81611068565b92915050565b600080600080608085870312156110ae576110ad610bf1565b5b60006110bc87828801610fd1565b945050602085015167ffffffffffffffff8111156110dd576110dc610bf6565b5b6110e987828801611028565b935050604085015167ffffffffffffffff81111561110a57611109610bf6565b5b61111687828801611028565b92505060606111278782880161107f565b91505092959194509250565b60008160601b9050919050565b600061114b82611133565b9050919050565b600061115d82611140565b9050919050565b61117561117082610b77565b611152565b82525050565b60006111878284611164565b60148201915081905092915050565b600081905092915050565b60006111ac82610e18565b6111b68185611196565b93506111c6818560208601610e34565b80840191505092915050565b60006111de82846111a1565b915081905092915050565b7f4e487b7100000000000000000000000000000000000000000000000000000000600052602260045260246000fd5b6000600282049050600182168061123057607f821691505b602082108103611243576112426111e9565b5b50919050565b60008190508160005260206000209050919050565b6000815461126b81611218565b6112758186610e23565b9450600182166000811461129057600181146112a2576112d5565b60ff19831686526020860193506112d5565b6112ab85611249565b60005b838110156112cd578154818901526001820191506020810190506112ae565b808801955050505b50505092915050565b60006040820190506112f36000830185610bbd565b8181036020830152611305818461125e565b90509392505050565b61131781610bfb565b82525050565b6000606082019050611332600083018661130e565b61133f6020830185610bbd565b81810360408301526113518184610e67565b9050949350505050565b60006020828403121561137157611370610bf1565b5b600061137f84828501610fd1565b91505092915050565b6000819050919050565b6000819050919050565b6000819050919050565b60006113c16113bc6113b784611388565b61139c565b611392565b9050919050565b6113d1816113a6565b82525050565b60006080820190506113ec6000830187610bbd565b6113f9602083018661130e565b61140660408301856113c8565b6114136060830184610b89565b95945050505050565b7f437265617465323a20696e73756666696369656e742062616c616e6365000000600082015250565b6000611452601d83610ec2565b915061145d8261141c565b602082019050919050565b6000602082019050818103600083015261148181611445565b9050919050565b7f437265617465323a2062797465636f6465206c656e677468206973207a65726f600082015250565b60006114be602083610ec2565b91506114c982611488565b602082019050919050565b600060208201905081810360008301526114ed816114b1565b9050919050565b7f437265617465323a204661696c6564206f6e206465706c6f7900000000000000600082015250565b600061152a601983610ec2565b9150611535826114f4565b602082019050919050565b600060208201905081810360008301526115598161151d565b9050919050565b6000604082019050611575600083018561130e565b61158260208301846113c8565b9392505050565b61159281611392565b811461159d57600080fd5b50565b6000815190506115af81611589565b92915050565b6000602082840312156115cb576115ca610bf1565b5b60006115d9848285016115a0565b9150509291505056fea2646970667358221220095f82dee5b88242ff785c14d8159589222c4dfc422679d64d01f65dc45c4d2364736f6c634300080e0033",
  "linkReferences": {},
  "deployedLinkReferences": {}
}