{"contracts/MessageRouter.sol":{"MessageRouter":{"abi":[{"inputs":[{"internalType":"address","name":"_senderMailbox","type":"address"},{"internalType":"address","name":"_receiverMailbox","type":"address"},{"internalType":"address","name":"_senderInterchainGasPaymaster","type":"address"},{"internalType":"uint32","name":"_senderDomainId","type":"uint32"},{"internalType":"address","name":"_messageMainContract","type":"address"}],"stateMutability":"nonpayable","type":"constructor"},{"anonymous":false,"inputs":[{"indexed":false,"internalType":"bytes32","name":"uuid","type":"bytes32"},{"indexed":false,"internalType":"string","name":"sourceFunction","type":"string"},{"indexed":false,"internalType":"bytes","name":"data","type":"bytes"}],"name":"CallbackCreated","type":"event"},{"anonymous":false,"inputs":[{"indexed":false,"internalType":"bytes32","name":"uuid","type":"bytes32"},{"indexed":true,"internalType":"address","name":"Executer","type":"address"},{"indexed":false,"internalType":"bytes","name":"callData","type":"bytes"}],"name":"dispatchCallCreated","type":"event"},{"inputs":[],"name":"_data","outputs":[{"internalType":"bytes","name":"","type":"bytes"}],"stateMutability":"view","type":"function"},{"inputs":[],"name":"_uuid","outputs":[{"internalType":"bytes32","name":"","type":"bytes32"}],"stateMutability":"view","type":"function"},{"inputs":[{"internalType":"uint32","name":"_origin","type":"uint32"},{"internalType":"bytes32","name":"_sender","type":"bytes32"},{"internalType":"bytes","name":"_result","type":"bytes"}],"name":"handle","outputs":[],"stateMutability":"nonpayable","type":"function"},{"inputs":[{"internalType":"bytes","name":"_byteCode","type":"bytes"},{"internalType":"bytes","name":"_encodedFunctionData","type":"bytes"}],"name":"sendMessage","outputs":[],"stateMutability":"payable","type":"function"},{"inputs":[],"name":"withdraw","outputs":[],"stateMutability":"nonpayable","type":"function"}],"evm":{"bytecode":{"linkReferences":{},"object":"60806040523480156200001157600080fd5b506040516200138e3803806200138e833981810160405281019062000037919062000211565b846000806101000a81548173ffffffffffffffffffffffffffffffffffffffff021916908373ffffffffffffffffffffffffffffffffffffffff16021790555083600160006101000a81548173ffffffffffffffffffffffffffffffffffffffff021916908373ffffffffffffffffffffffffffffffffffffffff16021790555082600260006101000a81548173ffffffffffffffffffffffffffffffffffffffff021916908373ffffffffffffffffffffffffffffffffffffffff16021790555081600260146101000a81548163ffffffff021916908363ffffffff16021790555080600360006101000a81548173ffffffffffffffffffffffffffffffffffffffff021916908373ffffffffffffffffffffffffffffffffffffffff160217905550505050505062000299565b600080fd5b600073ffffffffffffffffffffffffffffffffffffffff82169050919050565b600062000198826200016b565b9050919050565b620001aa816200018b565b8114620001b657600080fd5b50565b600081519050620001ca816200019f565b92915050565b600063ffffffff82169050919050565b620001eb81620001d0565b8114620001f757600080fd5b50565b6000815190506200020b81620001e0565b92915050565b600080600080600060a0868803121562000230576200022f62000166565b5b60006200024088828901620001b9565b95505060206200025388828901620001b9565b94505060406200026688828901620001b9565b93505060606200027988828901620001fa565b92505060806200028c88828901620001b9565b9150509295509295909350565b6110e580620002a96000396000f3fe60806040526004361061004a5760003560e01c80631beddccf1461004f5780633ccfd60b1461007a57806348e6fa231461009157806356d5d475146100ad57806368beab3f146100d6575b600080fd5b34801561005b57600080fd5b50610064610101565b6040516100719190610707565b60405180910390f35b34801561008657600080fd5b5061008f610107565b005b6100ab60048036038101906100a691906108dc565b610199565b005b3480156100b957600080fd5b506100d460048036038101906100cf91906109c0565b610410565b005b3480156100e257600080fd5b506100eb6104e0565b6040516100f89190610ab7565b60405180910390f35b60045481565b60004790506000811161014f576040517f08c379a000000000000000000000000000000000000000000000000000000000815260040161014690610b36565b60405180910390fd5b3373ffffffffffffffffffffffffffffffffffffffff166108fc829081150290604051600060405180830381858888f19350505050158015610195573d6000803e3d6000fd5b5050565b600043600036600660008154809291906101b290610b8f565b919050556040516020016101c99493929190610c28565b604051602081830303815290604052805190602001209050600760008281526020019081526020016000205060008185858530604051602001610210959493929190610cd1565b604051602081830303815290604052905060008060009054906101000a900473ffffffffffffffffffffffffffffffffffffffff1673ffffffffffffffffffffffffffffffffffffffff1663fa31de01600260149054906101000a900463ffffffff1661029e600360009054906101000a900473ffffffffffffffffffffffffffffffffffffffff1661056e565b856040518463ffffffff1660e01b81526004016102bd93929190610d35565b6020604051808303816000875af11580156102dc573d6000803e3d6000fd5b505050506040513d601f19601f820116820180604052508101906103009190610d88565b9050600061030c610591565b9050600260009054906101000a900473ffffffffffffffffffffffffffffffffffffffff1673ffffffffffffffffffffffffffffffffffffffff166311bf2c188284600260149054906101000a900463ffffffff16620f6848336040518663ffffffff1660e01b81526004016103859493929190610dfa565b6000604051808303818588803b15801561039e57600080fd5b505af11580156103b2573d6000803e3d6000fd5b50505050503373ffffffffffffffffffffffffffffffffffffffff167fafa62105ca2541f085db083bc4d421addbe6be3b6bb940ddf02520a6882166e985856040516103ff929190610e3f565b60405180910390a250505050505050565b600160009054906101000a900473ffffffffffffffffffffffffffffffffffffffff1673ffffffffffffffffffffffffffffffffffffffff163373ffffffffffffffffffffffffffffffffffffffff16146104a0576040517f08c379a000000000000000000000000000000000000000000000000000000000815260040161049790610ee1565b60405180910390fd5b600080828060200190518101906104b79190610f71565b915091508160048190555080600590805190602001906104d892919061064b565b505050505050565b600580546104ed90610ffc565b80601f016020809104026020016040519081016040528092919081815260200182805461051990610ffc565b80156105665780601f1061053b57610100808354040283529160200191610566565b820191906000526020600020905b81548152906001019060200180831161054957829003601f168201915b505050505081565b60008173ffffffffffffffffffffffffffffffffffffffff1660001b9050919050565b6000600260009054906101000a900473ffffffffffffffffffffffffffffffffffffffff1673ffffffffffffffffffffffffffffffffffffffff1663a6929793600260149054906101000a900463ffffffff16620f68486040518363ffffffff1660e01b815260040161060592919061102d565b602060405180830381865afa158015610622573d6000803e3d6000fd5b505050506040513d601f19601f820116820180604052508101906106469190611082565b905090565b82805461065790610ffc565b90600052602060002090601f01602090048101928261067957600085556106c0565b82601f1061069257805160ff19168380011785556106c0565b828001600101855582156106c0579182015b828111156106bf5782518255916020019190600101906106a4565b5b5090506106cd91906106d1565b5090565b5b808211156106ea5760008160009055506001016106d2565b5090565b6000819050919050565b610701816106ee565b82525050565b600060208201905061071c60008301846106f8565b92915050565b6000604051905090565b600080fd5b600080fd5b600080fd5b600080fd5b6000601f19601f8301169050919050565b7f4e487b7100000000000000000000000000000000000000000000000000000000600052604160045260246000fd5b61078982610740565b810181811067ffffffffffffffff821117156107a8576107a7610751565b5b80604052505050565b60006107bb610722565b90506107c78282610780565b919050565b600067ffffffffffffffff8211156107e7576107e6610751565b5b6107f082610740565b9050602081019050919050565b82818337600083830152505050565b600061081f61081a846107cc565b6107b1565b90508281526020810184848401111561083b5761083a61073b565b5b6108468482856107fd565b509392505050565b600082601f83011261086357610862610736565b5b813561087384826020860161080c565b91505092915050565b600080fd5b600080fd5b60008083601f84011261089c5761089b610736565b5b8235905067ffffffffffffffff8111156108b9576108b861087c565b5b6020830191508360018202830111156108d5576108d4610881565b5b9250929050565b6000806000604084860312156108f5576108f461072c565b5b600084013567ffffffffffffffff81111561091357610912610731565b5b61091f8682870161084e565b935050602084013567ffffffffffffffff8111156109405761093f610731565b5b61094c86828701610886565b92509250509250925092565b600063ffffffff82169050919050565b61097181610958565b811461097c57600080fd5b50565b60008135905061098e81610968565b92915050565b61099d816106ee565b81146109a857600080fd5b50565b6000813590506109ba81610994565b92915050565b6000806000606084860312156109d9576109d861072c565b5b60006109e78682870161097f565b93505060206109f8868287016109ab565b925050604084013567ffffffffffffffff811115610a1957610a18610731565b5b610a258682870161084e565b9150509250925092565b600081519050919050565b600082825260208201905092915050565b60005b83811015610a69578082015181840152602081019050610a4e565b83811115610a78576000848401525b50505050565b6000610a8982610a2f565b610a938185610a3a565b9350610aa3818560208601610a4b565b610aac81610740565b840191505092915050565b60006020820190508181036000830152610ad18184610a7e565b905092915050565b600082825260208201905092915050565b7f436f6e74726163742062616c616e6365206973207a65726f0000000000000000600082015250565b6000610b20601883610ad9565b9150610b2b82610aea565b602082019050919050565b60006020820190508181036000830152610b4f81610b13565b9050919050565b7f4e487b7100000000000000000000000000000000000000000000000000000000600052601160045260246000fd5b6000819050919050565b6000610b9a82610b85565b91507fffffffffffffffffffffffffffffffffffffffffffffffffffffffffffffffff8203610bcc57610bcb610b56565b5b600182019050919050565b6000819050919050565b610bf2610bed82610b85565b610bd7565b82525050565b600081905092915050565b6000610c0f8385610bf8565b9350610c1c8385846107fd565b82840190509392505050565b6000610c348287610be1565b602082019150610c45828587610c03565b9150610c518284610be1565b60208201915081905095945050505050565b6000610c6f8385610a3a565b9350610c7c8385846107fd565b610c8583610740565b840190509392505050565b600073ffffffffffffffffffffffffffffffffffffffff82169050919050565b6000610cbb82610c90565b9050919050565b610ccb81610cb0565b82525050565b6000608082019050610ce660008301886106f8565b8181036020830152610cf88187610a7e565b90508181036040830152610d0d818587610c63565b9050610d1c6060830184610cc2565b9695505050505050565b610d2f81610958565b82525050565b6000606082019050610d4a6000830186610d26565b610d5760208301856106f8565b8181036040830152610d698184610a7e565b9050949350505050565b600081519050610d8281610994565b92915050565b600060208284031215610d9e57610d9d61072c565b5b6000610dac84828501610d73565b91505092915050565b6000819050919050565b6000819050919050565b6000610de4610ddf610dda84610db5565b610dbf565b610b85565b9050919050565b610df481610dc9565b82525050565b6000608082019050610e0f60008301876106f8565b610e1c6020830186610d26565b610e296040830185610deb565b610e366060830184610cc2565b95945050505050565b6000604082019050610e5460008301856106f8565b8181036020830152610e668184610a7e565b90509392505050565b7f4f6e6c79206d61696c626f782063616e2063616c6c20746869732066756e637460008201527f696f6e2021212100000000000000000000000000000000000000000000000000602082015250565b6000610ecb602783610ad9565b9150610ed682610e6f565b604082019050919050565b60006020820190508181036000830152610efa81610ebe565b9050919050565b6000610f14610f0f846107cc565b6107b1565b905082815260208101848484011115610f3057610f2f61073b565b5b610f3b848285610a4b565b509392505050565b600082601f830112610f5857610f57610736565b5b8151610f68848260208601610f01565b91505092915050565b60008060408385031215610f8857610f8761072c565b5b6000610f9685828601610d73565b925050602083015167ffffffffffffffff811115610fb757610fb6610731565b5b610fc385828601610f43565b9150509250929050565b7f4e487b7100000000000000000000000000000000000000000000000000000000600052602260045260246000fd5b6000600282049050600182168061101457607f821691505b60208210810361102757611026610fcd565b5b50919050565b60006040820190506110426000830185610d26565b61104f6020830184610deb565b9392505050565b61105f81610b85565b811461106a57600080fd5b50565b60008151905061107c81611056565b92915050565b6000602082840312156110985761109761072c565b5b60006110a68482850161106d565b9150509291505056fea26469706673582212204fd184a4444f799702c886ea675cd66bc666cf1eb1acde6edba34c58b939f70e64736f6c634300080e0033","opcodes":"PUSH1 0x80 PUSH1 0x40 MSTORE CALLVALUE DUP1 ISZERO PUSH3 0x11 JUMPI PUSH1 0x0 DUP1 REVERT JUMPDEST POP PUSH1 0x40 MLOAD PUSH3 0x138E CODESIZE SUB DUP1 PUSH3 0x138E DUP4 CODECOPY DUP2 DUP2 ADD PUSH1 0x40 MSTORE DUP2 ADD SWAP1 PUSH3 0x37 SWAP2 SWAP1 PUSH3 0x211 JUMP JUMPDEST DUP5 PUSH1 0x0 DUP1 PUSH2 0x100 EXP DUP2 SLOAD DUP2 PUSH20 0xFFFFFFFFFFFFFFFFFFFFFFFFFFFFFFFFFFFFFFFF MUL NOT AND SWAP1 DUP4 PUSH20 0xFFFFFFFFFFFFFFFFFFFFFFFFFFFFFFFFFFFFFFFF AND MUL OR SWAP1 SSTORE POP DUP4 PUSH1 0x1 PUSH1 0x0 PUSH2 0x100 EXP DUP2 SLOAD DUP2 PUSH20 0xFFFFFFFFFFFFFFFFFFFFFFFFFFFFFFFFFFFFFFFF MUL NOT AND SWAP1 DUP4 PUSH20 0xFFFFFFFFFFFFFFFFFFFFFFFFFFFFFFFFFFFFFFFF AND MUL OR SWAP1 SSTORE POP DUP3 PUSH1 0x2 PUSH1 0x0 PUSH2 0x100 EXP DUP2 SLOAD DUP2 PUSH20 0xFFFFFFFFFFFFFFFFFFFFFFFFFFFFFFFFFFFFFFFF MUL NOT AND SWAP1 DUP4 PUSH20 0xFFFFFFFFFFFFFFFFFFFFFFFFFFFFFFFFFFFFFFFF AND MUL OR SWAP1 SSTORE POP DUP2 PUSH1 0x2 PUSH1 0x14 PUSH2 0x100 EXP DUP2 SLOAD DUP2 PUSH4 0xFFFFFFFF MUL NOT AND SWAP1 DUP4 PUSH4 0xFFFFFFFF AND MUL OR SWAP1 SSTORE POP DUP1 PUSH1 0x3 PUSH1 0x0 PUSH2 0x100 EXP DUP2 SLOAD DUP2 PUSH20 0xFFFFFFFFFFFFFFFFFFFFFFFFFFFFFFFFFFFFFFFF MUL NOT AND SWAP1 DUP4 PUSH20 0xFFFFFFFFFFFFFFFFFFFFFFFFFFFFFFFFFFFFFFFF AND MUL OR SWAP1 SSTORE POP POP POP POP POP POP PUSH3 0x299 JUMP JUMPDEST PUSH1 0x0 DUP1 REVERT JUMPDEST PUSH1 0x0 PUSH20 0xFFFFFFFFFFFFFFFFFFFFFFFFFFFFFFFFFFFFFFFF DUP3 AND SWAP1 POP SWAP2 SWAP1 POP JUMP JUMPDEST PUSH1 0x0 PUSH3 0x198 DUP3 PUSH3 0x16B JUMP JUMPDEST SWAP1 POP SWAP2 SWAP1 POP JUMP JUMPDEST PUSH3 0x1AA DUP2 PUSH3 0x18B JUMP JUMPDEST DUP2 EQ PUSH3 0x1B6 JUMPI PUSH1 0x0 DUP1 REVERT JUMPDEST POP JUMP JUMPDEST PUSH1 0x0 DUP2 MLOAD SWAP1 POP PUSH3 0x1CA DUP2 PUSH3 0x19F JUMP JUMPDEST SWAP3 SWAP2 POP POP JUMP JUMPDEST PUSH1 0x0 PUSH4 0xFFFFFFFF DUP3 AND SWAP1 POP SWAP2 SWAP1 POP JUMP JUMPDEST PUSH3 0x1EB DUP2 PUSH3 0x1D0 JUMP JUMPDEST DUP2 EQ PUSH3 0x1F7 JUMPI PUSH1 0x0 DUP1 REVERT JUMPDEST POP JUMP JUMPDEST PUSH1 0x0 DUP2 MLOAD SWAP1 POP PUSH3 0x20B DUP2 PUSH3 0x1E0 JUMP JUMPDEST SWAP3 SWAP2 POP POP JUMP JUMPDEST PUSH1 0x0 DUP1 PUSH1 0x0 DUP1 PUSH1 0x0 PUSH1 0xA0 DUP7 DUP9 SUB SLT ISZERO PUSH3 0x230 JUMPI PUSH3 0x22F PUSH3 0x166 JUMP JUMPDEST JUMPDEST PUSH1 0x0 PUSH3 0x240 DUP9 DUP3 DUP10 ADD PUSH3 0x1B9 JUMP JUMPDEST SWAP6 POP POP PUSH1 0x20 PUSH3 0x253 DUP9 DUP3 DUP10 ADD PUSH3 0x1B9 JUMP JUMPDEST SWAP5 POP POP PUSH1 0x40 PUSH3 0x266 DUP9 DUP3 DUP10 ADD PUSH3 0x1B9 JUMP JUMPDEST SWAP4 POP POP PUSH1 0x60 PUSH3 0x279 DUP9 DUP3 DUP10 ADD PUSH3 0x1FA JUMP JUMPDEST SWAP3 POP POP PUSH1 0x80 PUSH3 0x28C DUP9 DUP3 DUP10 ADD PUSH3 0x1B9 JUMP JUMPDEST SWAP2 POP POP SWAP3 SWAP6 POP SWAP3 SWAP6 SWAP1 SWAP4 POP JUMP JUMPDEST PUSH2 0x10E5 DUP1 PUSH3 0x2A9 PUSH1 0x0 CODECOPY PUSH1 0x0 RETURN INVALID PUSH1 0x80 PUSH1 0x40 MSTORE PUSH1 0x4 CALLDATASIZE LT PUSH2 0x4A JUMPI PUSH1 0x0 CALLDATALOAD PUSH1 0xE0 SHR DUP1 PUSH4 0x1BEDDCCF EQ PUSH2 0x4F JUMPI DUP1 PUSH4 0x3CCFD60B EQ PUSH2 0x7A JUMPI DUP1 PUSH4 0x48E6FA23 EQ PUSH2 0x91 JUMPI DUP1 PUSH4 0x56D5D475 EQ PUSH2 0xAD JUMPI DUP1 PUSH4 0x68BEAB3F EQ PUSH2 0xD6 JUMPI JUMPDEST PUSH1 0x0 DUP1 REVERT JUMPDEST CALLVALUE DUP1 ISZERO PUSH2 0x5B JUMPI PUSH1 0x0 DUP1 REVERT JUMPDEST POP PUSH2 0x64 PUSH2 0x101 JUMP JUMPDEST PUSH1 0x40 MLOAD PUSH2 0x71 SWAP2 SWAP1 PUSH2 0x707 JUMP JUMPDEST PUSH1 0x40 MLOAD DUP1 SWAP2 SUB SWAP1 RETURN JUMPDEST CALLVALUE DUP1 ISZERO PUSH2 0x86 JUMPI PUSH1 0x0 DUP1 REVERT JUMPDEST POP PUSH2 0x8F PUSH2 0x107 JUMP JUMPDEST STOP JUMPDEST PUSH2 0xAB PUSH1 0x4 DUP1 CALLDATASIZE SUB DUP2 ADD SWAP1 PUSH2 0xA6 SWAP2 SWAP1 PUSH2 0x8DC JUMP JUMPDEST PUSH2 0x199 JUMP JUMPDEST STOP JUMPDEST CALLVALUE DUP1 ISZERO PUSH2 0xB9 JUMPI PUSH1 0x0 DUP1 REVERT JUMPDEST POP PUSH2 0xD4 PUSH1 0x4 DUP1 CALLDATASIZE SUB DUP2 ADD SWAP1 PUSH2 0xCF SWAP2 SWAP1 PUSH2 0x9C0 JUMP JUMPDEST PUSH2 0x410 JUMP JUMPDEST STOP JUMPDEST CALLVALUE DUP1 ISZERO PUSH2 0xE2 JUMPI PUSH1 0x0 DUP1 REVERT JUMPDEST POP PUSH2 0xEB PUSH2 0x4E0 JUMP JUMPDEST PUSH1 0x40 MLOAD PUSH2 0xF8 SWAP2 SWAP1 PUSH2 0xAB7 JUMP JUMPDEST PUSH1 0x40 MLOAD DUP1 SWAP2 SUB SWAP1 RETURN JUMPDEST PUSH1 0x4 SLOAD DUP2 JUMP JUMPDEST PUSH1 0x0 SELFBALANCE SWAP1 POP PUSH1 0x0 DUP2 GT PUSH2 0x14F JUMPI PUSH1 0x40 MLOAD PUSH32 0x8C379A000000000000000000000000000000000000000000000000000000000 DUP2 MSTORE PUSH1 0x4 ADD PUSH2 0x146 SWAP1 PUSH2 0xB36 JUMP JUMPDEST PUSH1 0x40 MLOAD DUP1 SWAP2 SUB SWAP1 REVERT JUMPDEST CALLER PUSH20 0xFFFFFFFFFFFFFFFFFFFFFFFFFFFFFFFFFFFFFFFF AND PUSH2 0x8FC DUP3 SWAP1 DUP2 ISZERO MUL SWAP1 PUSH1 0x40 MLOAD PUSH1 0x0 PUSH1 0x40 MLOAD DUP1 DUP4 SUB DUP2 DUP6 DUP9 DUP9 CALL SWAP4 POP POP POP POP ISZERO DUP1 ISZERO PUSH2 0x195 JUMPI RETURNDATASIZE PUSH1 0x0 DUP1 RETURNDATACOPY RETURNDATASIZE PUSH1 0x0 REVERT JUMPDEST POP POP JUMP JUMPDEST PUSH1 0x0 NUMBER PUSH1 0x0 CALLDATASIZE PUSH1 0x6 PUSH1 0x0 DUP2 SLOAD DUP1 SWAP3 SWAP2 SWAP1 PUSH2 0x1B2 SWAP1 PUSH2 0xB8F JUMP JUMPDEST SWAP2 SWAP1 POP SSTORE PUSH1 0x40 MLOAD PUSH1 0x20 ADD PUSH2 0x1C9 SWAP5 SWAP4 SWAP3 SWAP2 SWAP1 PUSH2 0xC28 JUMP JUMPDEST PUSH1 0x40 MLOAD PUSH1 0x20 DUP2 DUP4 SUB SUB DUP2 MSTORE SWAP1 PUSH1 0x40 MSTORE DUP1 MLOAD SWAP1 PUSH1 0x20 ADD KECCAK256 SWAP1 POP PUSH1 0x7 PUSH1 0x0 DUP3 DUP2 MSTORE PUSH1 0x20 ADD SWAP1 DUP2 MSTORE PUSH1 0x20 ADD PUSH1 0x0 KECCAK256 POP PUSH1 0x0 DUP2 DUP6 DUP6 DUP6 ADDRESS PUSH1 0x40 MLOAD PUSH1 0x20 ADD PUSH2 0x210 SWAP6 SWAP5 SWAP4 SWAP3 SWAP2 SWAP1 PUSH2 0xCD1 JUMP JUMPDEST PUSH1 0x40 MLOAD PUSH1 0x20 DUP2 DUP4 SUB SUB DUP2 MSTORE SWAP1 PUSH1 0x40 MSTORE SWAP1 POP PUSH1 0x0 DUP1 PUSH1 0x0 SWAP1 SLOAD SWAP1 PUSH2 0x100 EXP SWAP1 DIV PUSH20 0xFFFFFFFFFFFFFFFFFFFFFFFFFFFFFFFFFFFFFFFF AND PUSH20 0xFFFFFFFFFFFFFFFFFFFFFFFFFFFFFFFFFFFFFFFF AND PUSH4 0xFA31DE01 PUSH1 0x2 PUSH1 0x14 SWAP1 SLOAD SWAP1 PUSH2 0x100 EXP SWAP1 DIV PUSH4 0xFFFFFFFF AND PUSH2 0x29E PUSH1 0x3 PUSH1 0x0 SWAP1 SLOAD SWAP1 PUSH2 0x100 EXP SWAP1 DIV PUSH20 0xFFFFFFFFFFFFFFFFFFFFFFFFFFFFFFFFFFFFFFFF AND PUSH2 0x56E JUMP JUMPDEST DUP6 PUSH1 0x40 MLOAD DUP5 PUSH4 0xFFFFFFFF AND PUSH1 0xE0 SHL DUP2 MSTORE PUSH1 0x4 ADD PUSH2 0x2BD SWAP4 SWAP3 SWAP2 SWAP1 PUSH2 0xD35 JUMP JUMPDEST PUSH1 0x20 PUSH1 0x40 MLOAD DUP1 DUP4 SUB DUP2 PUSH1 0x0 DUP8 GAS CALL ISZERO DUP1 ISZERO PUSH2 0x2DC JUMPI RETURNDATASIZE PUSH1 0x0 DUP1 RETURNDATACOPY RETURNDATASIZE PUSH1 0x0 REVERT JUMPDEST POP POP POP POP PUSH1 0x40 MLOAD RETURNDATASIZE PUSH1 0x1F NOT PUSH1 0x1F DUP3 ADD AND DUP3 ADD DUP1 PUSH1 0x40 MSTORE POP DUP2 ADD SWAP1 PUSH2 0x300 SWAP2 SWAP1 PUSH2 0xD88 JUMP JUMPDEST SWAP1 POP PUSH1 0x0 PUSH2 0x30C PUSH2 0x591 JUMP JUMPDEST SWAP1 POP PUSH1 0x2 PUSH1 0x0 SWAP1 SLOAD SWAP1 PUSH2 0x100 EXP SWAP1 DIV PUSH20 0xFFFFFFFFFFFFFFFFFFFFFFFFFFFFFFFFFFFFFFFF AND PUSH20 0xFFFFFFFFFFFFFFFFFFFFFFFFFFFFFFFFFFFFFFFF AND PUSH4 0x11BF2C18 DUP3 DUP5 PUSH1 0x2 PUSH1 0x14 SWAP1 SLOAD SWAP1 PUSH2 0x100 EXP SWAP1 DIV PUSH4 0xFFFFFFFF AND PUSH3 0xF6848 CALLER PUSH1 0x40 MLOAD DUP7 PUSH4 0xFFFFFFFF AND PUSH1 0xE0 SHL DUP2 MSTORE PUSH1 0x4 ADD PUSH2 0x385 SWAP5 SWAP4 SWAP3 SWAP2 SWAP1 PUSH2 0xDFA JUMP JUMPDEST PUSH1 0x0 PUSH1 0x40 MLOAD DUP1 DUP4 SUB DUP2 DUP6 DUP9 DUP1 EXTCODESIZE ISZERO DUP1 ISZERO PUSH2 0x39E JUMPI PUSH1 0x0 DUP1 REVERT JUMPDEST POP GAS CALL ISZERO DUP1 ISZERO PUSH2 0x3B2 JUMPI RETURNDATASIZE PUSH1 0x0 DUP1 RETURNDATACOPY RETURNDATASIZE PUSH1 0x0 REVERT JUMPDEST POP POP POP POP POP CALLER PUSH20 0xFFFFFFFFFFFFFFFFFFFFFFFFFFFFFFFFFFFFFFFF AND PUSH32 0xAFA62105CA2541F085DB083BC4D421ADDBE6BE3B6BB940DDF02520A6882166E9 DUP6 DUP6 PUSH1 0x40 MLOAD PUSH2 0x3FF SWAP3 SWAP2 SWAP1 PUSH2 0xE3F JUMP JUMPDEST PUSH1 0x40 MLOAD DUP1 SWAP2 SUB SWAP1 LOG2 POP POP POP POP POP POP POP JUMP JUMPDEST PUSH1 0x1 PUSH1 0x0 SWAP1 SLOAD SWAP1 PUSH2 0x100 EXP SWAP1 DIV PUSH20 0xFFFFFFFFFFFFFFFFFFFFFFFFFFFFFFFFFFFFFFFF AND PUSH20 0xFFFFFFFFFFFFFFFFFFFFFFFFFFFFFFFFFFFFFFFF AND CALLER PUSH20 0xFFFFFFFFFFFFFFFFFFFFFFFFFFFFFFFFFFFFFFFF AND EQ PUSH2 0x4A0 JUMPI PUSH1 0x40 MLOAD PUSH32 0x8C379A000000000000000000000000000000000000000000000000000000000 DUP2 MSTORE PUSH1 0x4 ADD PUSH2 0x497 SWAP1 PUSH2 0xEE1 JUMP JUMPDEST PUSH1 0x40 MLOAD DUP1 SWAP2 SUB SWAP1 REVERT JUMPDEST PUSH1 0x0 DUP1 DUP3 DUP1 PUSH1 0x20 ADD SWAP1 MLOAD DUP2 ADD SWAP1 PUSH2 0x4B7 SWAP2 SWAP1 PUSH2 0xF71 JUMP JUMPDEST SWAP2 POP SWAP2 POP DUP2 PUSH1 0x4 DUP2 SWAP1 SSTORE POP DUP1 PUSH1 0x5 SWAP1 DUP1 MLOAD SWAP1 PUSH1 0x20 ADD SWAP1 PUSH2 0x4D8 SWAP3 SWAP2 SWAP1 PUSH2 0x64B JUMP JUMPDEST POP POP POP POP POP POP JUMP JUMPDEST PUSH1 0x5 DUP1 SLOAD PUSH2 0x4ED SWAP1 PUSH2 0xFFC JUMP JUMPDEST DUP1 PUSH1 0x1F ADD PUSH1 0x20 DUP1 SWAP2 DIV MUL PUSH1 0x20 ADD PUSH1 0x40 MLOAD SWAP1 DUP2 ADD PUSH1 0x40 MSTORE DUP1 SWAP3 SWAP2 SWAP1 DUP2 DUP2 MSTORE PUSH1 0x20 ADD DUP3 DUP1 SLOAD PUSH2 0x519 SWAP1 PUSH2 0xFFC JUMP JUMPDEST DUP1 ISZERO PUSH2 0x566 JUMPI DUP1 PUSH1 0x1F LT PUSH2 0x53B JUMPI PUSH2 0x100 DUP1 DUP4 SLOAD DIV MUL DUP4 MSTORE SWAP2 PUSH1 0x20 ADD SWAP2 PUSH2 0x566 JUMP JUMPDEST DUP3 ADD SWAP2 SWAP1 PUSH1 0x0 MSTORE PUSH1 0x20 PUSH1 0x0 KECCAK256 SWAP1 JUMPDEST DUP2 SLOAD DUP2 MSTORE SWAP1 PUSH1 0x1 ADD SWAP1 PUSH1 0x20 ADD DUP1 DUP4 GT PUSH2 0x549 JUMPI DUP3 SWAP1 SUB PUSH1 0x1F AND DUP3 ADD SWAP2 JUMPDEST POP POP POP POP POP DUP2 JUMP JUMPDEST PUSH1 0x0 DUP2 PUSH20 0xFFFFFFFFFFFFFFFFFFFFFFFFFFFFFFFFFFFFFFFF AND PUSH1 0x0 SHL SWAP1 POP SWAP2 SWAP1 POP JUMP JUMPDEST PUSH1 0x0 PUSH1 0x2 PUSH1 0x0 SWAP1 SLOAD SWAP1 PUSH2 0x100 EXP SWAP1 DIV PUSH20 0xFFFFFFFFFFFFFFFFFFFFFFFFFFFFFFFFFFFFFFFF AND PUSH20 0xFFFFFFFFFFFFFFFFFFFFFFFFFFFFFFFFFFFFFFFF AND PUSH4 0xA6929793 PUSH1 0x2 PUSH1 0x14 SWAP1 SLOAD SWAP1 PUSH2 0x100 EXP SWAP1 DIV PUSH4 0xFFFFFFFF AND PUSH3 0xF6848 PUSH1 0x40 MLOAD DUP4 PUSH4 0xFFFFFFFF AND PUSH1 0xE0 SHL DUP2 MSTORE PUSH1 0x4 ADD PUSH2 0x605 SWAP3 SWAP2 SWAP1 PUSH2 0x102D JUMP JUMPDEST PUSH1 0x20 PUSH1 0x40 MLOAD DUP1 DUP4 SUB DUP2 DUP7 GAS STATICCALL ISZERO DUP1 ISZERO PUSH2 0x622 JUMPI RETURNDATASIZE PUSH1 0x0 DUP1 RETURNDATACOPY RETURNDATASIZE PUSH1 0x0 REVERT JUMPDEST POP POP POP POP PUSH1 0x40 MLOAD RETURNDATASIZE PUSH1 0x1F NOT PUSH1 0x1F DUP3 ADD AND DUP3 ADD DUP1 PUSH1 0x40 MSTORE POP DUP2 ADD SWAP1 PUSH2 0x646 SWAP2 SWAP1 PUSH2 0x1082 JUMP JUMPDEST SWAP1 POP SWAP1 JUMP JUMPDEST DUP3 DUP1 SLOAD PUSH2 0x657 SWAP1 PUSH2 0xFFC JUMP JUMPDEST SWAP1 PUSH1 0x0 MSTORE PUSH1 0x20 PUSH1 0x0 KECCAK256 SWAP1 PUSH1 0x1F ADD PUSH1 0x20 SWAP1 DIV DUP2 ADD SWAP3 DUP3 PUSH2 0x679 JUMPI PUSH1 0x0 DUP6 SSTORE PUSH2 0x6C0 JUMP JUMPDEST DUP3 PUSH1 0x1F LT PUSH2 0x692 JUMPI DUP1 MLOAD PUSH1 0xFF NOT AND DUP4 DUP1 ADD OR DUP6 SSTORE PUSH2 0x6C0 JUMP JUMPDEST DUP3 DUP1 ADD PUSH1 0x1 ADD DUP6 SSTORE DUP3 ISZERO PUSH2 0x6C0 JUMPI SWAP2 DUP3 ADD JUMPDEST DUP3 DUP2 GT ISZERO PUSH2 0x6BF JUMPI DUP3 MLOAD DUP3 SSTORE SWAP2 PUSH1 0x20 ADD SWAP2 SWAP1 PUSH1 0x1 ADD SWAP1 PUSH2 0x6A4 JUMP JUMPDEST JUMPDEST POP SWAP1 POP PUSH2 0x6CD SWAP2 SWAP1 PUSH2 0x6D1 JUMP JUMPDEST POP SWAP1 JUMP JUMPDEST JUMPDEST DUP1 DUP3 GT ISZERO PUSH2 0x6EA JUMPI PUSH1 0x0 DUP2 PUSH1 0x0 SWAP1 SSTORE POP PUSH1 0x1 ADD PUSH2 0x6D2 JUMP JUMPDEST POP SWAP1 JUMP JUMPDEST PUSH1 0x0 DUP2 SWAP1 POP SWAP2 SWAP1 POP JUMP JUMPDEST PUSH2 0x701 DUP2 PUSH2 0x6EE JUMP JUMPDEST DUP3 MSTORE POP POP JUMP JUMPDEST PUSH1 0x0 PUSH1 0x20 DUP3 ADD SWAP1 POP PUSH2 0x71C PUSH1 0x0 DUP4 ADD DUP5 PUSH2 0x6F8 JUMP JUMPDEST SWAP3 SWAP2 POP POP JUMP JUMPDEST PUSH1 0x0 PUSH1 0x40 MLOAD SWAP1 POP SWAP1 JUMP JUMPDEST PUSH1 0x0 DUP1 REVERT JUMPDEST PUSH1 0x0 DUP1 REVERT JUMPDEST PUSH1 0x0 DUP1 REVERT JUMPDEST PUSH1 0x0 DUP1 REVERT JUMPDEST PUSH1 0x0 PUSH1 0x1F NOT PUSH1 0x1F DUP4 ADD AND SWAP1 POP SWAP2 SWAP1 POP JUMP JUMPDEST PUSH32 0x4E487B7100000000000000000000000000000000000000000000000000000000 PUSH1 0x0 MSTORE PUSH1 0x41 PUSH1 0x4 MSTORE PUSH1 0x24 PUSH1 0x0 REVERT JUMPDEST PUSH2 0x789 DUP3 PUSH2 0x740 JUMP JUMPDEST DUP2 ADD DUP2 DUP2 LT PUSH8 0xFFFFFFFFFFFFFFFF DUP3 GT OR ISZERO PUSH2 0x7A8 JUMPI PUSH2 0x7A7 PUSH2 0x751 JUMP JUMPDEST JUMPDEST DUP1 PUSH1 0x40 MSTORE POP POP POP JUMP JUMPDEST PUSH1 0x0 PUSH2 0x7BB PUSH2 0x722 JUMP JUMPDEST SWAP1 POP PUSH2 0x7C7 DUP3 DUP3 PUSH2 0x780 JUMP JUMPDEST SWAP2 SWAP1 POP JUMP JUMPDEST PUSH1 0x0 PUSH8 0xFFFFFFFFFFFFFFFF DUP3 GT ISZERO PUSH2 0x7E7 JUMPI PUSH2 0x7E6 PUSH2 0x751 JUMP JUMPDEST JUMPDEST PUSH2 0x7F0 DUP3 PUSH2 0x740 JUMP JUMPDEST SWAP1 POP PUSH1 0x20 DUP2 ADD SWAP1 POP SWAP2 SWAP1 POP JUMP JUMPDEST DUP3 DUP2 DUP4 CALLDATACOPY PUSH1 0x0 DUP4 DUP4 ADD MSTORE POP POP POP JUMP JUMPDEST PUSH1 0x0 PUSH2 0x81F PUSH2 0x81A DUP5 PUSH2 0x7CC JUMP JUMPDEST PUSH2 0x7B1 JUMP JUMPDEST SWAP1 POP DUP3 DUP2 MSTORE PUSH1 0x20 DUP2 ADD DUP5 DUP5 DUP5 ADD GT ISZERO PUSH2 0x83B JUMPI PUSH2 0x83A PUSH2 0x73B JUMP JUMPDEST JUMPDEST PUSH2 0x846 DUP5 DUP3 DUP6 PUSH2 0x7FD JUMP JUMPDEST POP SWAP4 SWAP3 POP POP POP JUMP JUMPDEST PUSH1 0x0 DUP3 PUSH1 0x1F DUP4 ADD SLT PUSH2 0x863 JUMPI PUSH2 0x862 PUSH2 0x736 JUMP JUMPDEST JUMPDEST DUP2 CALLDATALOAD PUSH2 0x873 DUP5 DUP3 PUSH1 0x20 DUP7 ADD PUSH2 0x80C JUMP JUMPDEST SWAP2 POP POP SWAP3 SWAP2 POP POP JUMP JUMPDEST PUSH1 0x0 DUP1 REVERT JUMPDEST PUSH1 0x0 DUP1 REVERT JUMPDEST PUSH1 0x0 DUP1 DUP4 PUSH1 0x1F DUP5 ADD SLT PUSH2 0x89C JUMPI PUSH2 0x89B PUSH2 0x736 JUMP JUMPDEST JUMPDEST DUP3 CALLDATALOAD SWAP1 POP PUSH8 0xFFFFFFFFFFFFFFFF DUP2 GT ISZERO PUSH2 0x8B9 JUMPI PUSH2 0x8B8 PUSH2 0x87C JUMP JUMPDEST JUMPDEST PUSH1 0x20 DUP4 ADD SWAP2 POP DUP4 PUSH1 0x1 DUP3 MUL DUP4 ADD GT ISZERO PUSH2 0x8D5 JUMPI PUSH2 0x8D4 PUSH2 0x881 JUMP JUMPDEST JUMPDEST SWAP3 POP SWAP3 SWAP1 POP JUMP JUMPDEST PUSH1 0x0 DUP1 PUSH1 0x0 PUSH1 0x40 DUP5 DUP7 SUB SLT ISZERO PUSH2 0x8F5 JUMPI PUSH2 0x8F4 PUSH2 0x72C JUMP JUMPDEST JUMPDEST PUSH1 0x0 DUP5 ADD CALLDATALOAD PUSH8 0xFFFFFFFFFFFFFFFF DUP2 GT ISZERO PUSH2 0x913 JUMPI PUSH2 0x912 PUSH2 0x731 JUMP JUMPDEST JUMPDEST PUSH2 0x91F DUP7 DUP3 DUP8 ADD PUSH2 0x84E JUMP JUMPDEST SWAP4 POP POP PUSH1 0x20 DUP5 ADD CALLDATALOAD PUSH8 0xFFFFFFFFFFFFFFFF DUP2 GT ISZERO PUSH2 0x940 JUMPI PUSH2 0x93F PUSH2 0x731 JUMP JUMPDEST JUMPDEST PUSH2 0x94C DUP7 DUP3 DUP8 ADD PUSH2 0x886 JUMP JUMPDEST SWAP3 POP SWAP3 POP POP SWAP3 POP SWAP3 POP SWAP3 JUMP JUMPDEST PUSH1 0x0 PUSH4 0xFFFFFFFF DUP3 AND SWAP1 POP SWAP2 SWAP1 POP JUMP JUMPDEST PUSH2 0x971 DUP2 PUSH2 0x958 JUMP JUMPDEST DUP2 EQ PUSH2 0x97C JUMPI PUSH1 0x0 DUP1 REVERT JUMPDEST POP JUMP JUMPDEST PUSH1 0x0 DUP2 CALLDATALOAD SWAP1 POP PUSH2 0x98E DUP2 PUSH2 0x968 JUMP JUMPDEST SWAP3 SWAP2 POP POP JUMP JUMPDEST PUSH2 0x99D DUP2 PUSH2 0x6EE JUMP JUMPDEST DUP2 EQ PUSH2 0x9A8 JUMPI PUSH1 0x0 DUP1 REVERT JUMPDEST POP JUMP JUMPDEST PUSH1 0x0 DUP2 CALLDATALOAD SWAP1 POP PUSH2 0x9BA DUP2 PUSH2 0x994 JUMP JUMPDEST SWAP3 SWAP2 POP POP JUMP JUMPDEST PUSH1 0x0 DUP1 PUSH1 0x0 PUSH1 0x60 DUP5 DUP7 SUB SLT ISZERO PUSH2 0x9D9 JUMPI PUSH2 0x9D8 PUSH2 0x72C JUMP JUMPDEST JUMPDEST PUSH1 0x0 PUSH2 0x9E7 DUP7 DUP3 DUP8 ADD PUSH2 0x97F JUMP JUMPDEST SWAP4 POP POP PUSH1 0x20 PUSH2 0x9F8 DUP7 DUP3 DUP8 ADD PUSH2 0x9AB JUMP JUMPDEST SWAP3 POP POP PUSH1 0x40 DUP5 ADD CALLDATALOAD PUSH8 0xFFFFFFFFFFFFFFFF DUP2 GT ISZERO PUSH2 0xA19 JUMPI PUSH2 0xA18 PUSH2 0x731 JUMP JUMPDEST JUMPDEST PUSH2 0xA25 DUP7 DUP3 DUP8 ADD PUSH2 0x84E JUMP JUMPDEST SWAP2 POP POP SWAP3 POP SWAP3 POP SWAP3 JUMP JUMPDEST PUSH1 0x0 DUP2 MLOAD SWAP1 POP SWAP2 SWAP1 POP JUMP JUMPDEST PUSH1 0x0 DUP3 DUP3 MSTORE PUSH1 0x20 DUP3 ADD SWAP1 POP SWAP3 SWAP2 POP POP JUMP JUMPDEST PUSH1 0x0 JUMPDEST DUP4 DUP2 LT ISZERO PUSH2 0xA69 JUMPI DUP1 DUP3 ADD MLOAD DUP2 DUP5 ADD MSTORE PUSH1 0x20 DUP2 ADD SWAP1 POP PUSH2 0xA4E JUMP JUMPDEST DUP4 DUP2 GT ISZERO PUSH2 0xA78 JUMPI PUSH1 0x0 DUP5 DUP5 ADD MSTORE JUMPDEST POP POP POP POP JUMP JUMPDEST PUSH1 0x0 PUSH2 0xA89 DUP3 PUSH2 0xA2F JUMP JUMPDEST PUSH2 0xA93 DUP2 DUP6 PUSH2 0xA3A JUMP JUMPDEST SWAP4 POP PUSH2 0xAA3 DUP2 DUP6 PUSH1 0x20 DUP7 ADD PUSH2 0xA4B JUMP JUMPDEST PUSH2 0xAAC DUP2 PUSH2 0x740 JUMP JUMPDEST DUP5 ADD SWAP2 POP POP SWAP3 SWAP2 POP POP JUMP JUMPDEST PUSH1 0x0 PUSH1 0x20 DUP3 ADD SWAP1 POP DUP2 DUP2 SUB PUSH1 0x0 DUP4 ADD MSTORE PUSH2 0xAD1 DUP2 DUP5 PUSH2 0xA7E JUMP JUMPDEST SWAP1 POP SWAP3 SWAP2 POP POP JUMP JUMPDEST PUSH1 0x0 DUP3 DUP3 MSTORE PUSH1 0x20 DUP3 ADD SWAP1 POP SWAP3 SWAP2 POP POP JUMP JUMPDEST PUSH32 0x436F6E74726163742062616C616E6365206973207A65726F0000000000000000 PUSH1 0x0 DUP3 ADD MSTORE POP JUMP JUMPDEST PUSH1 0x0 PUSH2 0xB20 PUSH1 0x18 DUP4 PUSH2 0xAD9 JUMP JUMPDEST SWAP2 POP PUSH2 0xB2B DUP3 PUSH2 0xAEA JUMP JUMPDEST PUSH1 0x20 DUP3 ADD SWAP1 POP SWAP2 SWAP1 POP JUMP JUMPDEST PUSH1 0x0 PUSH1 0x20 DUP3 ADD SWAP1 POP DUP2 DUP2 SUB PUSH1 0x0 DUP4 ADD MSTORE PUSH2 0xB4F DUP2 PUSH2 0xB13 JUMP JUMPDEST SWAP1 POP SWAP2 SWAP1 POP JUMP JUMPDEST PUSH32 0x4E487B7100000000000000000000000000000000000000000000000000000000 PUSH1 0x0 MSTORE PUSH1 0x11 PUSH1 0x4 MSTORE PUSH1 0x24 PUSH1 0x0 REVERT JUMPDEST PUSH1 0x0 DUP2 SWAP1 POP SWAP2 SWAP1 POP JUMP JUMPDEST PUSH1 0x0 PUSH2 0xB9A DUP3 PUSH2 0xB85 JUMP JUMPDEST SWAP2 POP PUSH32 0xFFFFFFFFFFFFFFFFFFFFFFFFFFFFFFFFFFFFFFFFFFFFFFFFFFFFFFFFFFFFFFFF DUP3 SUB PUSH2 0xBCC JUMPI PUSH2 0xBCB PUSH2 0xB56 JUMP JUMPDEST JUMPDEST PUSH1 0x1 DUP3 ADD SWAP1 POP SWAP2 SWAP1 POP JUMP JUMPDEST PUSH1 0x0 DUP2 SWAP1 POP SWAP2 SWAP1 POP JUMP JUMPDEST PUSH2 0xBF2 PUSH2 0xBED DUP3 PUSH2 0xB85 JUMP JUMPDEST PUSH2 0xBD7 JUMP JUMPDEST DUP3 MSTORE POP POP JUMP JUMPDEST PUSH1 0x0 DUP2 SWAP1 POP SWAP3 SWAP2 POP POP JUMP JUMPDEST PUSH1 0x0 PUSH2 0xC0F DUP4 DUP6 PUSH2 0xBF8 JUMP JUMPDEST SWAP4 POP PUSH2 0xC1C DUP4 DUP6 DUP5 PUSH2 0x7FD JUMP JUMPDEST DUP3 DUP5 ADD SWAP1 POP SWAP4 SWAP3 POP POP POP JUMP JUMPDEST PUSH1 0x0 PUSH2 0xC34 DUP3 DUP8 PUSH2 0xBE1 JUMP JUMPDEST PUSH1 0x20 DUP3 ADD SWAP2 POP PUSH2 0xC45 DUP3 DUP6 DUP8 PUSH2 0xC03 JUMP JUMPDEST SWAP2 POP PUSH2 0xC51 DUP3 DUP5 PUSH2 0xBE1 JUMP JUMPDEST PUSH1 0x20 DUP3 ADD SWAP2 POP DUP2 SWAP1 POP SWAP6 SWAP5 POP POP POP POP POP JUMP JUMPDEST PUSH1 0x0 PUSH2 0xC6F DUP4 DUP6 PUSH2 0xA3A JUMP JUMPDEST SWAP4 POP PUSH2 0xC7C DUP4 DUP6 DUP5 PUSH2 0x7FD JUMP JUMPDEST PUSH2 0xC85 DUP4 PUSH2 0x740 JUMP JUMPDEST DUP5 ADD SWAP1 POP SWAP4 SWAP3 POP POP POP JUMP JUMPDEST PUSH1 0x0 PUSH20 0xFFFFFFFFFFFFFFFFFFFFFFFFFFFFFFFFFFFFFFFF DUP3 AND SWAP1 POP SWAP2 SWAP1 POP JUMP JUMPDEST PUSH1 0x0 PUSH2 0xCBB DUP3 PUSH2 0xC90 JUMP JUMPDEST SWAP1 POP SWAP2 SWAP1 POP JUMP JUMPDEST PUSH2 0xCCB DUP2 PUSH2 0xCB0 JUMP JUMPDEST DUP3 MSTORE POP POP JUMP JUMPDEST PUSH1 0x0 PUSH1 0x80 DUP3 ADD SWAP1 POP PUSH2 0xCE6 PUSH1 0x0 DUP4 ADD DUP9 PUSH2 0x6F8 JUMP JUMPDEST DUP2 DUP2 SUB PUSH1 0x20 DUP4 ADD MSTORE PUSH2 0xCF8 DUP2 DUP8 PUSH2 0xA7E JUMP JUMPDEST SWAP1 POP DUP2 DUP2 SUB PUSH1 0x40 DUP4 ADD MSTORE PUSH2 0xD0D DUP2 DUP6 DUP8 PUSH2 0xC63 JUMP JUMPDEST SWAP1 POP PUSH2 0xD1C PUSH1 0x60 DUP4 ADD DUP5 PUSH2 0xCC2 JUMP JUMPDEST SWAP7 SWAP6 POP POP POP POP POP POP JUMP JUMPDEST PUSH2 0xD2F DUP2 PUSH2 0x958 JUMP JUMPDEST DUP3 MSTORE POP POP JUMP JUMPDEST PUSH1 0x0 PUSH1 0x60 DUP3 ADD SWAP1 POP PUSH2 0xD4A PUSH1 0x0 DUP4 ADD DUP7 PUSH2 0xD26 JUMP JUMPDEST PUSH2 0xD57 PUSH1 0x20 DUP4 ADD DUP6 PUSH2 0x6F8 JUMP JUMPDEST DUP2 DUP2 SUB PUSH1 0x40 DUP4 ADD MSTORE PUSH2 0xD69 DUP2 DUP5 PUSH2 0xA7E JUMP JUMPDEST SWAP1 POP SWAP5 SWAP4 POP POP POP POP JUMP JUMPDEST PUSH1 0x0 DUP2 MLOAD SWAP1 POP PUSH2 0xD82 DUP2 PUSH2 0x994 JUMP JUMPDEST SWAP3 SWAP2 POP POP JUMP JUMPDEST PUSH1 0x0 PUSH1 0x20 DUP3 DUP5 SUB SLT ISZERO PUSH2 0xD9E JUMPI PUSH2 0xD9D PUSH2 0x72C JUMP JUMPDEST JUMPDEST PUSH1 0x0 PUSH2 0xDAC DUP5 DUP3 DUP6 ADD PUSH2 0xD73 JUMP JUMPDEST SWAP2 POP POP SWAP3 SWAP2 POP POP JUMP JUMPDEST PUSH1 0x0 DUP2 SWAP1 POP SWAP2 SWAP1 POP JUMP JUMPDEST PUSH1 0x0 DUP2 SWAP1 POP SWAP2 SWAP1 POP JUMP JUMPDEST PUSH1 0x0 PUSH2 0xDE4 PUSH2 0xDDF PUSH2 0xDDA DUP5 PUSH2 0xDB5 JUMP JUMPDEST PUSH2 0xDBF JUMP JUMPDEST PUSH2 0xB85 JUMP JUMPDEST SWAP1 POP SWAP2 SWAP1 POP JUMP JUMPDEST PUSH2 0xDF4 DUP2 PUSH2 0xDC9 JUMP JUMPDEST DUP3 MSTORE POP POP JUMP JUMPDEST PUSH1 0x0 PUSH1 0x80 DUP3 ADD SWAP1 POP PUSH2 0xE0F PUSH1 0x0 DUP4 ADD DUP8 PUSH2 0x6F8 JUMP JUMPDEST PUSH2 0xE1C PUSH1 0x20 DUP4 ADD DUP7 PUSH2 0xD26 JUMP JUMPDEST PUSH2 0xE29 PUSH1 0x40 DUP4 ADD DUP6 PUSH2 0xDEB JUMP JUMPDEST PUSH2 0xE36 PUSH1 0x60 DUP4 ADD DUP5 PUSH2 0xCC2 JUMP JUMPDEST SWAP6 SWAP5 POP POP POP POP POP JUMP JUMPDEST PUSH1 0x0 PUSH1 0x40 DUP3 ADD SWAP1 POP PUSH2 0xE54 PUSH1 0x0 DUP4 ADD DUP6 PUSH2 0x6F8 JUMP JUMPDEST DUP2 DUP2 SUB PUSH1 0x20 DUP4 ADD MSTORE PUSH2 0xE66 DUP2 DUP5 PUSH2 0xA7E JUMP JUMPDEST SWAP1 POP SWAP4 SWAP3 POP POP POP JUMP JUMPDEST PUSH32 0x4F6E6C79206D61696C626F782063616E2063616C6C20746869732066756E6374 PUSH1 0x0 DUP3 ADD MSTORE PUSH32 0x696F6E2021212100000000000000000000000000000000000000000000000000 PUSH1 0x20 DUP3 ADD MSTORE POP JUMP JUMPDEST PUSH1 0x0 PUSH2 0xECB PUSH1 0x27 DUP4 PUSH2 0xAD9 JUMP JUMPDEST SWAP2 POP PUSH2 0xED6 DUP3 PUSH2 0xE6F JUMP JUMPDEST PUSH1 0x40 DUP3 ADD SWAP1 POP SWAP2 SWAP1 POP JUMP JUMPDEST PUSH1 0x0 PUSH1 0x20 DUP3 ADD SWAP1 POP DUP2 DUP2 SUB PUSH1 0x0 DUP4 ADD MSTORE PUSH2 0xEFA DUP2 PUSH2 0xEBE JUMP JUMPDEST SWAP1 POP SWAP2 SWAP1 POP JUMP JUMPDEST PUSH1 0x0 PUSH2 0xF14 PUSH2 0xF0F DUP5 PUSH2 0x7CC JUMP JUMPDEST PUSH2 0x7B1 JUMP JUMPDEST SWAP1 POP DUP3 DUP2 MSTORE PUSH1 0x20 DUP2 ADD DUP5 DUP5 DUP5 ADD GT ISZERO PUSH2 0xF30 JUMPI PUSH2 0xF2F PUSH2 0x73B JUMP JUMPDEST JUMPDEST PUSH2 0xF3B DUP5 DUP3 DUP6 PUSH2 0xA4B JUMP JUMPDEST POP SWAP4 SWAP3 POP POP POP JUMP JUMPDEST PUSH1 0x0 DUP3 PUSH1 0x1F DUP4 ADD SLT PUSH2 0xF58 JUMPI PUSH2 0xF57 PUSH2 0x736 JUMP JUMPDEST JUMPDEST DUP2 MLOAD PUSH2 0xF68 DUP5 DUP3 PUSH1 0x20 DUP7 ADD PUSH2 0xF01 JUMP JUMPDEST SWAP2 POP POP SWAP3 SWAP2 POP POP JUMP JUMPDEST PUSH1 0x0 DUP1 PUSH1 0x40 DUP4 DUP6 SUB SLT ISZERO PUSH2 0xF88 JUMPI PUSH2 0xF87 PUSH2 0x72C JUMP JUMPDEST JUMPDEST PUSH1 0x0 PUSH2 0xF96 DUP6 DUP3 DUP7 ADD PUSH2 0xD73 JUMP JUMPDEST SWAP3 POP POP PUSH1 0x20 DUP4 ADD MLOAD PUSH8 0xFFFFFFFFFFFFFFFF DUP2 GT ISZERO PUSH2 0xFB7 JUMPI PUSH2 0xFB6 PUSH2 0x731 JUMP JUMPDEST JUMPDEST PUSH2 0xFC3 DUP6 DUP3 DUP7 ADD PUSH2 0xF43 JUMP JUMPDEST SWAP2 POP POP SWAP3 POP SWAP3 SWAP1 POP JUMP JUMPDEST PUSH32 0x4E487B7100000000000000000000000000000000000000000000000000000000 PUSH1 0x0 MSTORE PUSH1 0x22 PUSH1 0x4 MSTORE PUSH1 0x24 PUSH1 0x0 REVERT JUMPDEST PUSH1 0x0 PUSH1 0x2 DUP3 DIV SWAP1 POP PUSH1 0x1 DUP3 AND DUP1 PUSH2 0x1014 JUMPI PUSH1 0x7F DUP3 AND SWAP2 POP JUMPDEST PUSH1 0x20 DUP3 LT DUP2 SUB PUSH2 0x1027 JUMPI PUSH2 0x1026 PUSH2 0xFCD JUMP JUMPDEST JUMPDEST POP SWAP2 SWAP1 POP JUMP JUMPDEST PUSH1 0x0 PUSH1 0x40 DUP3 ADD SWAP1 POP PUSH2 0x1042 PUSH1 0x0 DUP4 ADD DUP6 PUSH2 0xD26 JUMP JUMPDEST PUSH2 0x104F PUSH1 0x20 DUP4 ADD DUP5 PUSH2 0xDEB JUMP JUMPDEST SWAP4 SWAP3 POP POP POP JUMP JUMPDEST PUSH2 0x105F DUP2 PUSH2 0xB85 JUMP JUMPDEST DUP2 EQ PUSH2 0x106A JUMPI PUSH1 0x0 DUP1 REVERT JUMPDEST POP JUMP JUMPDEST PUSH1 0x0 DUP2 MLOAD SWAP1 POP PUSH2 0x107C DUP2 PUSH2 0x1056 JUMP JUMPDEST SWAP3 SWAP2 POP POP JUMP JUMPDEST PUSH1 0x0 PUSH1 0x20 DUP3 DUP5 SUB SLT ISZERO PUSH2 0x1098 JUMPI PUSH2 0x1097 PUSH2 0x72C JUMP JUMPDEST JUMPDEST PUSH1 0x0 PUSH2 0x10A6 DUP5 DUP3 DUP6 ADD PUSH2 0x106D JUMP JUMPDEST SWAP2 POP POP SWAP3 SWAP2 POP POP JUMP INVALID LOG2 PUSH5 0x6970667358 0x22 SLT KECCAK256 0x4F 0xD1 DUP5 LOG4 DIFFICULTY 0x4F PUSH26 0x9702C886EA675CD66BC666CF1EB1ACDE6EDBA34C58B939F70E64 PUSH20 0x6F6C634300080E00330000000000000000000000 "},"methodIdentifiers":{"_data()":"68beab3f","_uuid()":"1beddccf","handle(uint32,bytes32,bytes)":"56d5d475","sendMessage(bytes,bytes)":"48e6fa23","withdraw()":"3ccfd60b"}}}}}