{"contracts/MessageMain.sol":{"MessageMain":{"abi":[{"inputs":[{"internalType":"address","name":"_senderMailbox","type":"address"},{"internalType":"address","name":"_receiverMailbox","type":"address"},{"internalType":"address","name":"_receiverInterchainGasPaymaster","type":"address"},{"internalType":"uint32","name":"_receiverDomainId","type":"uint32"}],"stateMutability":"nonpayable","type":"constructor"},{"anonymous":false,"inputs":[{"indexed":true,"internalType":"address","name":"Executer","type":"address"},{"indexed":false,"internalType":"bytes","name":"_result","type":"bytes"}],"name":"dispatchCallCreated","type":"event"},{"inputs":[],"name":"_data","outputs":[{"internalType":"bytes","name":"","type":"bytes"}],"stateMutability":"view","type":"function"},{"inputs":[],"name":"_deployedAddress","outputs":[{"internalType":"address","name":"","type":"address"}],"stateMutability":"view","type":"function"},{"inputs":[],"name":"_encodedFunctionData","outputs":[{"internalType":"bytes","name":"","type":"bytes"}],"stateMutability":"view","type":"function"},{"inputs":[],"name":"_uuid","outputs":[{"internalType":"bytes32","name":"","type":"bytes32"}],"stateMutability":"view","type":"function"},{"inputs":[{"internalType":"uint32","name":"_origin","type":"uint32"},{"internalType":"bytes32","name":"_sender","type":"bytes32"},{"internalType":"bytes","name":"_callData","type":"bytes"}],"name":"handle","outputs":[],"stateMutability":"nonpayable","type":"function"},{"inputs":[],"name":"result","outputs":[{"internalType":"bytes","name":"","type":"bytes"}],"stateMutability":"view","type":"function"},{"inputs":[],"name":"sendResult","outputs":[],"stateMutability":"payable","type":"function"},{"inputs":[],"name":"success","outputs":[{"internalType":"bool","name":"","type":"bool"}],"stateMutability":"view","type":"function"},{"inputs":[],"name":"withdraw","outputs":[],"stateMutability":"nonpayable","type":"function"}],"evm":{"bytecode":{"linkReferences":{},"object":"60806040523480156200001157600080fd5b5060405162001869380380620018698339818101604052810190620000379190620001cf565b836000806101000a81548173ffffffffffffffffffffffffffffffffffffffff021916908373ffffffffffffffffffffffffffffffffffffffff16021790555082600160006101000a81548173ffffffffffffffffffffffffffffffffffffffff021916908373ffffffffffffffffffffffffffffffffffffffff16021790555081600260006101000a81548173ffffffffffffffffffffffffffffffffffffffff021916908373ffffffffffffffffffffffffffffffffffffffff16021790555080600260146101000a81548163ffffffff021916908363ffffffff1602179055505050505062000241565b600080fd5b600073ffffffffffffffffffffffffffffffffffffffff82169050919050565b6000620001568262000129565b9050919050565b620001688162000149565b81146200017457600080fd5b50565b60008151905062000188816200015d565b92915050565b600063ffffffff82169050919050565b620001a9816200018e565b8114620001b557600080fd5b50565b600081519050620001c9816200019e565b92915050565b60008060008060808587031215620001ec57620001eb62000124565b5b6000620001fc8782880162000177565b94505060206200020f8782880162000177565b9350506040620002228782880162000177565b92505060606200023587828801620001b8565b91505092959194509250565b61161880620002516000396000f3fe6080604052600436106100865760003560e01c806356d5d4751161005957806356d5d47514610123578063653721471461014c57806368beab3f146101775780639a959426146101a2578063bc4d7396146101cd57610086565b80630b93381b1461008b57806312619b86146100b65780631beddccf146100e15780633ccfd60b1461010c575b600080fd5b34801561009757600080fd5b506100a06101d7565b6040516100ad9190610b3c565b60405180910390f35b3480156100c257600080fd5b506100cb6101ea565b6040516100d89190610b98565b60405180910390f35b3480156100ed57600080fd5b506100f6610210565b6040516101039190610bcc565b60405180910390f35b34801561011857600080fd5b50610121610216565b005b34801561012f57600080fd5b5061014a60048036038101906101459190610da9565b6102a8565b005b34801561015857600080fd5b506101616104da565b60405161016e9190610ea0565b60405180910390f35b34801561018357600080fd5b5061018c610568565b6040516101999190610ea0565b60405180910390f35b3480156101ae57600080fd5b506101b76105f6565b6040516101c49190610ea0565b60405180910390f35b6101d5610684565b005b600660149054906101000a900460ff1681565b600660009054906101000a900473ffffffffffffffffffffffffffffffffffffffff1681565b60075481565b60004790506000811161025e576040517f08c379a000000000000000000000000000000000000000000000000000000000815260040161025590610f1f565b60405180910390fd5b3373ffffffffffffffffffffffffffffffffffffffff166108fc829081150290604051600060405180830381858888f193505050501580156102a4573d6000803e3d6000fd5b5050565b60008054906101000a900473ffffffffffffffffffffffffffffffffffffffff1673ffffffffffffffffffffffffffffffffffffffff163373ffffffffffffffffffffffffffffffffffffffff1614610336576040517f08c379a000000000000000000000000000000000000000000000000000000000815260040161032d90610fb1565b60405180910390fd5b600080600080848060200190518101906103509190611094565b9350935093509350600061038c600080604051602001610370919061117b565b6040516020818303038152906040528051906020012086610897565b90506000808273ffffffffffffffffffffffffffffffffffffffff16856040516103b691906111d2565b6000604051808303816000865af19150503d80600081146103f3576040519150601f19603f3d011682016040523d82523d6000602084013e6103f8565b606091505b509150915083600360006101000a81548173ffffffffffffffffffffffffffffffffffffffff021916908373ffffffffffffffffffffffffffffffffffffffff1602179055508460099080519060200190610454929190610a7e565b5082600660006101000a81548173ffffffffffffffffffffffffffffffffffffffff021916908373ffffffffffffffffffffffffffffffffffffffff16021790555080600890805190602001906104ac929190610a7e565b508660078190555081600660146101000a81548160ff02191690831515021790555050505050505050505050565b600580546104e790611218565b80601f016020809104026020016040519081016040528092919081815260200182805461051390611218565b80156105605780601f1061053557610100808354040283529160200191610560565b820191906000526020600020905b81548152906001019060200180831161054357829003601f168201915b505050505081565b6008805461057590611218565b80601f01602080910402602001604051908101604052809291908181526020018280546105a190611218565b80156105ee5780601f106105c3576101008083540402835291602001916105ee565b820191906000526020600020905b8154815290600101906020018083116105d157829003601f168201915b505050505081565b6009805461060390611218565b80601f016020809104026020016040519081016040528092919081815260200182805461062f90611218565b801561067c5780601f106106515761010080835404028352916020019161067c565b820191906000526020600020905b81548152906001019060200180831161065f57829003601f168201915b505050505081565b6000600754600860405160200161069c9291906112de565b60405160208183030381529060405290506000600160009054906101000a900473ffffffffffffffffffffffffffffffffffffffff1673ffffffffffffffffffffffffffffffffffffffff1663fa31de01600260149054906101000a900463ffffffff1661072b600360009054906101000a900473ffffffffffffffffffffffffffffffffffffffff166109a1565b856040518463ffffffff1660e01b815260040161074a9392919061131d565b6020604051808303816000875af1158015610769573d6000803e3d6000fd5b505050506040513d601f19601f8201168201806040525081019061078d919061135b565b905060006107996109c4565b9050600260009054906101000a900473ffffffffffffffffffffffffffffffffffffffff1673ffffffffffffffffffffffffffffffffffffffff166311bf2c188284600260149054906101000a900463ffffffff16620f6848336040518663ffffffff1660e01b815260040161081294939291906113d7565b6000604051808303818588803b15801561082b57600080fd5b505af115801561083f573d6000803e3d6000fd5b50505050503373ffffffffffffffffffffffffffffffffffffffff167f8c8b27ab7e2e151570b9cbd2b7a29218c106d0a7274647f513d72dde2a69c4e08460405161088a9190610ea0565b60405180910390a2505050565b6000834710156108dc576040517f08c379a00000000000000000000000000000000000000000000000000000000081526004016108d390611468565b60405180910390fd5b6000825103610920576040517f08c379a0000000000000000000000000000000000000000000000000000000008152600401610917906114d4565b60405180910390fd5b8282516020840186f59050600073ffffffffffffffffffffffffffffffffffffffff168173ffffffffffffffffffffffffffffffffffffffff160361099a576040517f08c379a000000000000000000000000000000000000000000000000000000000815260040161099190611540565b60405180910390fd5b9392505050565b60008173ffffffffffffffffffffffffffffffffffffffff1660001b9050919050565b6000600260009054906101000a900473ffffffffffffffffffffffffffffffffffffffff1673ffffffffffffffffffffffffffffffffffffffff1663a6929793600260149054906101000a900463ffffffff16620f68486040518363ffffffff1660e01b8152600401610a38929190611560565b602060405180830381865afa158015610a55573d6000803e3d6000fd5b505050506040513d601f19601f82011682018060405250810190610a7991906115b5565b905090565b828054610a8a90611218565b90600052602060002090601f016020900481019282610aac5760008555610af3565b82601f10610ac557805160ff1916838001178555610af3565b82800160010185558215610af3579182015b82811115610af2578251825591602001919060010190610ad7565b5b509050610b009190610b04565b5090565b5b80821115610b1d576000816000905550600101610b05565b5090565b60008115159050919050565b610b3681610b21565b82525050565b6000602082019050610b516000830184610b2d565b92915050565b600073ffffffffffffffffffffffffffffffffffffffff82169050919050565b6000610b8282610b57565b9050919050565b610b9281610b77565b82525050565b6000602082019050610bad6000830184610b89565b92915050565b6000819050919050565b610bc681610bb3565b82525050565b6000602082019050610be16000830184610bbd565b92915050565b6000604051905090565b600080fd5b600080fd5b600063ffffffff82169050919050565b610c1481610bfb565b8114610c1f57600080fd5b50565b600081359050610c3181610c0b565b92915050565b610c4081610bb3565b8114610c4b57600080fd5b50565b600081359050610c5d81610c37565b92915050565b600080fd5b600080fd5b6000601f19601f8301169050919050565b7f4e487b7100000000000000000000000000000000000000000000000000000000600052604160045260246000fd5b610cb682610c6d565b810181811067ffffffffffffffff82111715610cd557610cd4610c7e565b5b80604052505050565b6000610ce8610be7565b9050610cf48282610cad565b919050565b600067ffffffffffffffff821115610d1457610d13610c7e565b5b610d1d82610c6d565b9050602081019050919050565b82818337600083830152505050565b6000610d4c610d4784610cf9565b610cde565b905082815260208101848484011115610d6857610d67610c68565b5b610d73848285610d2a565b509392505050565b600082601f830112610d9057610d8f610c63565b5b8135610da0848260208601610d39565b91505092915050565b600080600060608486031215610dc257610dc1610bf1565b5b6000610dd086828701610c22565b9350506020610de186828701610c4e565b925050604084013567ffffffffffffffff811115610e0257610e01610bf6565b5b610e0e86828701610d7b565b9150509250925092565b600081519050919050565b600082825260208201905092915050565b60005b83811015610e52578082015181840152602081019050610e37565b83811115610e61576000848401525b50505050565b6000610e7282610e18565b610e7c8185610e23565b9350610e8c818560208601610e34565b610e9581610c6d565b840191505092915050565b60006020820190508181036000830152610eba8184610e67565b905092915050565b600082825260208201905092915050565b7f436f6e74726163742062616c616e6365206973207a65726f0000000000000000600082015250565b6000610f09601883610ec2565b9150610f1482610ed3565b602082019050919050565b60006020820190508181036000830152610f3881610efc565b9050919050565b7f4f6e6c79206d61696c626f782063616e2063616c6c20746869732066756e637460008201527f696f6e2021212100000000000000000000000000000000000000000000000000602082015250565b6000610f9b602783610ec2565b9150610fa682610f3f565b604082019050919050565b60006020820190508181036000830152610fca81610f8e565b9050919050565b600081519050610fe081610c37565b92915050565b6000610ff9610ff484610cf9565b610cde565b90508281526020810184848401111561101557611014610c68565b5b611020848285610e34565b509392505050565b600082601f83011261103d5761103c610c63565b5b815161104d848260208601610fe6565b91505092915050565b600061106182610b57565b9050919050565b61107181611056565b811461107c57600080fd5b50565b60008151905061108e81611068565b92915050565b600080600080608085870312156110ae576110ad610bf1565b5b60006110bc87828801610fd1565b945050602085015167ffffffffffffffff8111156110dd576110dc610bf6565b5b6110e987828801611028565b935050604085015167ffffffffffffffff81111561110a57611109610bf6565b5b61111687828801611028565b92505060606111278782880161107f565b91505092959194509250565b60008160601b9050919050565b600061114b82611133565b9050919050565b600061115d82611140565b9050919050565b61117561117082610b77565b611152565b82525050565b60006111878284611164565b60148201915081905092915050565b600081905092915050565b60006111ac82610e18565b6111b68185611196565b93506111c6818560208601610e34565b80840191505092915050565b60006111de82846111a1565b915081905092915050565b7f4e487b7100000000000000000000000000000000000000000000000000000000600052602260045260246000fd5b6000600282049050600182168061123057607f821691505b602082108103611243576112426111e9565b5b50919050565b60008190508160005260206000209050919050565b6000815461126b81611218565b6112758186610e23565b9450600182166000811461129057600181146112a2576112d5565b60ff19831686526020860193506112d5565b6112ab85611249565b60005b838110156112cd578154818901526001820191506020810190506112ae565b808801955050505b50505092915050565b60006040820190506112f36000830185610bbd565b8181036020830152611305818461125e565b90509392505050565b61131781610bfb565b82525050565b6000606082019050611332600083018661130e565b61133f6020830185610bbd565b81810360408301526113518184610e67565b9050949350505050565b60006020828403121561137157611370610bf1565b5b600061137f84828501610fd1565b91505092915050565b6000819050919050565b6000819050919050565b6000819050919050565b60006113c16113bc6113b784611388565b61139c565b611392565b9050919050565b6113d1816113a6565b82525050565b60006080820190506113ec6000830187610bbd565b6113f9602083018661130e565b61140660408301856113c8565b6114136060830184610b89565b95945050505050565b7f437265617465323a20696e73756666696369656e742062616c616e6365000000600082015250565b6000611452601d83610ec2565b915061145d8261141c565b602082019050919050565b6000602082019050818103600083015261148181611445565b9050919050565b7f437265617465323a2062797465636f6465206c656e677468206973207a65726f600082015250565b60006114be602083610ec2565b91506114c982611488565b602082019050919050565b600060208201905081810360008301526114ed816114b1565b9050919050565b7f437265617465323a204661696c6564206f6e206465706c6f7900000000000000600082015250565b600061152a601983610ec2565b9150611535826114f4565b602082019050919050565b600060208201905081810360008301526115598161151d565b9050919050565b6000604082019050611575600083018561130e565b61158260208301846113c8565b9392505050565b61159281611392565b811461159d57600080fd5b50565b6000815190506115af81611589565b92915050565b6000602082840312156115cb576115ca610bf1565b5b60006115d9848285016115a0565b9150509291505056fea2646970667358221220095f82dee5b88242ff785c14d8159589222c4dfc422679d64d01f65dc45c4d2364736f6c634300080e0033","opcodes":"PUSH1 0x80 PUSH1 0x40 MSTORE CALLVALUE DUP1 ISZERO PUSH3 0x11 JUMPI PUSH1 0x0 DUP1 REVERT JUMPDEST POP PUSH1 0x40 MLOAD PUSH3 0x1869 CODESIZE SUB DUP1 PUSH3 0x1869 DUP4 CODECOPY DUP2 DUP2 ADD PUSH1 0x40 MSTORE DUP2 ADD SWAP1 PUSH3 0x37 SWAP2 SWAP1 PUSH3 0x1CF JUMP JUMPDEST DUP4 PUSH1 0x0 DUP1 PUSH2 0x100 EXP DUP2 SLOAD DUP2 PUSH20 0xFFFFFFFFFFFFFFFFFFFFFFFFFFFFFFFFFFFFFFFF MUL NOT AND SWAP1 DUP4 PUSH20 0xFFFFFFFFFFFFFFFFFFFFFFFFFFFFFFFFFFFFFFFF AND MUL OR SWAP1 SSTORE POP DUP3 PUSH1 0x1 PUSH1 0x0 PUSH2 0x100 EXP DUP2 SLOAD DUP2 PUSH20 0xFFFFFFFFFFFFFFFFFFFFFFFFFFFFFFFFFFFFFFFF MUL NOT AND SWAP1 DUP4 PUSH20 0xFFFFFFFFFFFFFFFFFFFFFFFFFFFFFFFFFFFFFFFF AND MUL OR SWAP1 SSTORE POP DUP2 PUSH1 0x2 PUSH1 0x0 PUSH2 0x100 EXP DUP2 SLOAD DUP2 PUSH20 0xFFFFFFFFFFFFFFFFFFFFFFFFFFFFFFFFFFFFFFFF MUL NOT AND SWAP1 DUP4 PUSH20 0xFFFFFFFFFFFFFFFFFFFFFFFFFFFFFFFFFFFFFFFF AND MUL OR SWAP1 SSTORE POP DUP1 PUSH1 0x2 PUSH1 0x14 PUSH2 0x100 EXP DUP2 SLOAD DUP2 PUSH4 0xFFFFFFFF MUL NOT AND SWAP1 DUP4 PUSH4 0xFFFFFFFF AND MUL OR SWAP1 SSTORE POP POP POP POP POP PUSH3 0x241 JUMP JUMPDEST PUSH1 0x0 DUP1 REVERT JUMPDEST PUSH1 0x0 PUSH20 0xFFFFFFFFFFFFFFFFFFFFFFFFFFFFFFFFFFFFFFFF DUP3 AND SWAP1 POP SWAP2 SWAP1 POP JUMP JUMPDEST PUSH1 0x0 PUSH3 0x156 DUP3 PUSH3 0x129 JUMP JUMPDEST SWAP1 POP SWAP2 SWAP1 POP JUMP JUMPDEST PUSH3 0x168 DUP2 PUSH3 0x149 JUMP JUMPDEST DUP2 EQ PUSH3 0x174 JUMPI PUSH1 0x0 DUP1 REVERT JUMPDEST POP JUMP JUMPDEST PUSH1 0x0 DUP2 MLOAD SWAP1 POP PUSH3 0x188 DUP2 PUSH3 0x15D JUMP JUMPDEST SWAP3 SWAP2 POP POP JUMP JUMPDEST PUSH1 0x0 PUSH4 0xFFFFFFFF DUP3 AND SWAP1 POP SWAP2 SWAP1 POP JUMP JUMPDEST PUSH3 0x1A9 DUP2 PUSH3 0x18E JUMP JUMPDEST DUP2 EQ PUSH3 0x1B5 JUMPI PUSH1 0x0 DUP1 REVERT JUMPDEST POP JUMP JUMPDEST PUSH1 0x0 DUP2 MLOAD SWAP1 POP PUSH3 0x1C9 DUP2 PUSH3 0x19E JUMP JUMPDEST SWAP3 SWAP2 POP POP JUMP JUMPDEST PUSH1 0x0 DUP1 PUSH1 0x0 DUP1 PUSH1 0x80 DUP6 DUP8 SUB SLT ISZERO PUSH3 0x1EC JUMPI PUSH3 0x1EB PUSH3 0x124 JUMP JUMPDEST JUMPDEST PUSH1 0x0 PUSH3 0x1FC DUP8 DUP3 DUP9 ADD PUSH3 0x177 JUMP JUMPDEST SWAP5 POP POP PUSH1 0x20 PUSH3 0x20F DUP8 DUP3 DUP9 ADD PUSH3 0x177 JUMP JUMPDEST SWAP4 POP POP PUSH1 0x40 PUSH3 0x222 DUP8 DUP3 DUP9 ADD PUSH3 0x177 JUMP JUMPDEST SWAP3 POP POP PUSH1 0x60 PUSH3 0x235 DUP8 DUP3 DUP9 ADD PUSH3 0x1B8 JUMP JUMPDEST SWAP2 POP POP SWAP3 SWAP6 SWAP2 SWAP5 POP SWAP3 POP JUMP JUMPDEST PUSH2 0x1618 DUP1 PUSH3 0x251 PUSH1 0x0 CODECOPY PUSH1 0x0 RETURN INVALID PUSH1 0x80 PUSH1 0x40 MSTORE PUSH1 0x4 CALLDATASIZE LT PUSH2 0x86 JUMPI PUSH1 0x0 CALLDATALOAD PUSH1 0xE0 SHR DUP1 PUSH4 0x56D5D475 GT PUSH2 0x59 JUMPI DUP1 PUSH4 0x56D5D475 EQ PUSH2 0x123 JUMPI DUP1 PUSH4 0x65372147 EQ PUSH2 0x14C JUMPI DUP1 PUSH4 0x68BEAB3F EQ PUSH2 0x177 JUMPI DUP1 PUSH4 0x9A959426 EQ PUSH2 0x1A2 JUMPI DUP1 PUSH4 0xBC4D7396 EQ PUSH2 0x1CD JUMPI PUSH2 0x86 JUMP JUMPDEST DUP1 PUSH4 0xB93381B EQ PUSH2 0x8B JUMPI DUP1 PUSH4 0x12619B86 EQ PUSH2 0xB6 JUMPI DUP1 PUSH4 0x1BEDDCCF EQ PUSH2 0xE1 JUMPI DUP1 PUSH4 0x3CCFD60B EQ PUSH2 0x10C JUMPI JUMPDEST PUSH1 0x0 DUP1 REVERT JUMPDEST CALLVALUE DUP1 ISZERO PUSH2 0x97 JUMPI PUSH1 0x0 DUP1 REVERT JUMPDEST POP PUSH2 0xA0 PUSH2 0x1D7 JUMP JUMPDEST PUSH1 0x40 MLOAD PUSH2 0xAD SWAP2 SWAP1 PUSH2 0xB3C JUMP JUMPDEST PUSH1 0x40 MLOAD DUP1 SWAP2 SUB SWAP1 RETURN JUMPDEST CALLVALUE DUP1 ISZERO PUSH2 0xC2 JUMPI PUSH1 0x0 DUP1 REVERT JUMPDEST POP PUSH2 0xCB PUSH2 0x1EA JUMP JUMPDEST PUSH1 0x40 MLOAD PUSH2 0xD8 SWAP2 SWAP1 PUSH2 0xB98 JUMP JUMPDEST PUSH1 0x40 MLOAD DUP1 SWAP2 SUB SWAP1 RETURN JUMPDEST CALLVALUE DUP1 ISZERO PUSH2 0xED JUMPI PUSH1 0x0 DUP1 REVERT JUMPDEST POP PUSH2 0xF6 PUSH2 0x210 JUMP JUMPDEST PUSH1 0x40 MLOAD PUSH2 0x103 SWAP2 SWAP1 PUSH2 0xBCC JUMP JUMPDEST PUSH1 0x40 MLOAD DUP1 SWAP2 SUB SWAP1 RETURN JUMPDEST CALLVALUE DUP1 ISZERO PUSH2 0x118 JUMPI PUSH1 0x0 DUP1 REVERT JUMPDEST POP PUSH2 0x121 PUSH2 0x216 JUMP JUMPDEST STOP JUMPDEST CALLVALUE DUP1 ISZERO PUSH2 0x12F JUMPI PUSH1 0x0 DUP1 REVERT JUMPDEST POP PUSH2 0x14A PUSH1 0x4 DUP1 CALLDATASIZE SUB DUP2 ADD SWAP1 PUSH2 0x145 SWAP2 SWAP1 PUSH2 0xDA9 JUMP JUMPDEST PUSH2 0x2A8 JUMP JUMPDEST STOP JUMPDEST CALLVALUE DUP1 ISZERO PUSH2 0x158 JUMPI PUSH1 0x0 DUP1 REVERT JUMPDEST POP PUSH2 0x161 PUSH2 0x4DA JUMP JUMPDEST PUSH1 0x40 MLOAD PUSH2 0x16E SWAP2 SWAP1 PUSH2 0xEA0 JUMP JUMPDEST PUSH1 0x40 MLOAD DUP1 SWAP2 SUB SWAP1 RETURN JUMPDEST CALLVALUE DUP1 ISZERO PUSH2 0x183 JUMPI PUSH1 0x0 DUP1 REVERT JUMPDEST POP PUSH2 0x18C PUSH2 0x568 JUMP JUMPDEST PUSH1 0x40 MLOAD PUSH2 0x199 SWAP2 SWAP1 PUSH2 0xEA0 JUMP JUMPDEST PUSH1 0x40 MLOAD DUP1 SWAP2 SUB SWAP1 RETURN JUMPDEST CALLVALUE DUP1 ISZERO PUSH2 0x1AE JUMPI PUSH1 0x0 DUP1 REVERT JUMPDEST POP PUSH2 0x1B7 PUSH2 0x5F6 JUMP JUMPDEST PUSH1 0x40 MLOAD PUSH2 0x1C4 SWAP2 SWAP1 PUSH2 0xEA0 JUMP JUMPDEST PUSH1 0x40 MLOAD DUP1 SWAP2 SUB SWAP1 RETURN JUMPDEST PUSH2 0x1D5 PUSH2 0x684 JUMP JUMPDEST STOP JUMPDEST PUSH1 0x6 PUSH1 0x14 SWAP1 SLOAD SWAP1 PUSH2 0x100 EXP SWAP1 DIV PUSH1 0xFF AND DUP2 JUMP JUMPDEST PUSH1 0x6 PUSH1 0x0 SWAP1 SLOAD SWAP1 PUSH2 0x100 EXP SWAP1 DIV PUSH20 0xFFFFFFFFFFFFFFFFFFFFFFFFFFFFFFFFFFFFFFFF AND DUP2 JUMP JUMPDEST PUSH1 0x7 SLOAD DUP2 JUMP JUMPDEST PUSH1 0x0 SELFBALANCE SWAP1 POP PUSH1 0x0 DUP2 GT PUSH2 0x25E JUMPI PUSH1 0x40 MLOAD PUSH32 0x8C379A000000000000000000000000000000000000000000000000000000000 DUP2 MSTORE PUSH1 0x4 ADD PUSH2 0x255 SWAP1 PUSH2 0xF1F JUMP JUMPDEST PUSH1 0x40 MLOAD DUP1 SWAP2 SUB SWAP1 REVERT JUMPDEST CALLER PUSH20 0xFFFFFFFFFFFFFFFFFFFFFFFFFFFFFFFFFFFFFFFF AND PUSH2 0x8FC DUP3 SWAP1 DUP2 ISZERO MUL SWAP1 PUSH1 0x40 MLOAD PUSH1 0x0 PUSH1 0x40 MLOAD DUP1 DUP4 SUB DUP2 DUP6 DUP9 DUP9 CALL SWAP4 POP POP POP POP ISZERO DUP1 ISZERO PUSH2 0x2A4 JUMPI RETURNDATASIZE PUSH1 0x0 DUP1 RETURNDATACOPY RETURNDATASIZE PUSH1 0x0 REVERT JUMPDEST POP POP JUMP JUMPDEST PUSH1 0x0 DUP1 SLOAD SWAP1 PUSH2 0x100 EXP SWAP1 DIV PUSH20 0xFFFFFFFFFFFFFFFFFFFFFFFFFFFFFFFFFFFFFFFF AND PUSH20 0xFFFFFFFFFFFFFFFFFFFFFFFFFFFFFFFFFFFFFFFF AND CALLER PUSH20 0xFFFFFFFFFFFFFFFFFFFFFFFFFFFFFFFFFFFFFFFF AND EQ PUSH2 0x336 JUMPI PUSH1 0x40 MLOAD PUSH32 0x8C379A000000000000000000000000000000000000000000000000000000000 DUP2 MSTORE PUSH1 0x4 ADD PUSH2 0x32D SWAP1 PUSH2 0xFB1 JUMP JUMPDEST PUSH1 0x40 MLOAD DUP1 SWAP2 SUB SWAP1 REVERT JUMPDEST PUSH1 0x0 DUP1 PUSH1 0x0 DUP1 DUP5 DUP1 PUSH1 0x20 ADD SWAP1 MLOAD DUP2 ADD SWAP1 PUSH2 0x350 SWAP2 SWAP1 PUSH2 0x1094 JUMP JUMPDEST SWAP4 POP SWAP4 POP SWAP4 POP SWAP4 POP PUSH1 0x0 PUSH2 0x38C PUSH1 0x0 DUP1 PUSH1 0x40 MLOAD PUSH1 0x20 ADD PUSH2 0x370 SWAP2 SWAP1 PUSH2 0x117B JUMP JUMPDEST PUSH1 0x40 MLOAD PUSH1 0x20 DUP2 DUP4 SUB SUB DUP2 MSTORE SWAP1 PUSH1 0x40 MSTORE DUP1 MLOAD SWAP1 PUSH1 0x20 ADD KECCAK256 DUP7 PUSH2 0x897 JUMP JUMPDEST SWAP1 POP PUSH1 0x0 DUP1 DUP3 PUSH20 0xFFFFFFFFFFFFFFFFFFFFFFFFFFFFFFFFFFFFFFFF AND DUP6 PUSH1 0x40 MLOAD PUSH2 0x3B6 SWAP2 SWAP1 PUSH2 0x11D2 JUMP JUMPDEST PUSH1 0x0 PUSH1 0x40 MLOAD DUP1 DUP4 SUB DUP2 PUSH1 0x0 DUP7 GAS CALL SWAP2 POP POP RETURNDATASIZE DUP1 PUSH1 0x0 DUP2 EQ PUSH2 0x3F3 JUMPI PUSH1 0x40 MLOAD SWAP2 POP PUSH1 0x1F NOT PUSH1 0x3F RETURNDATASIZE ADD AND DUP3 ADD PUSH1 0x40 MSTORE RETURNDATASIZE DUP3 MSTORE RETURNDATASIZE PUSH1 0x0 PUSH1 0x20 DUP5 ADD RETURNDATACOPY PUSH2 0x3F8 JUMP JUMPDEST PUSH1 0x60 SWAP2 POP JUMPDEST POP SWAP2 POP SWAP2 POP DUP4 PUSH1 0x3 PUSH1 0x0 PUSH2 0x100 EXP DUP2 SLOAD DUP2 PUSH20 0xFFFFFFFFFFFFFFFFFFFFFFFFFFFFFFFFFFFFFFFF MUL NOT AND SWAP1 DUP4 PUSH20 0xFFFFFFFFFFFFFFFFFFFFFFFFFFFFFFFFFFFFFFFF AND MUL OR SWAP1 SSTORE POP DUP5 PUSH1 0x9 SWAP1 DUP1 MLOAD SWAP1 PUSH1 0x20 ADD SWAP1 PUSH2 0x454 SWAP3 SWAP2 SWAP1 PUSH2 0xA7E JUMP JUMPDEST POP DUP3 PUSH1 0x6 PUSH1 0x0 PUSH2 0x100 EXP DUP2 SLOAD DUP2 PUSH20 0xFFFFFFFFFFFFFFFFFFFFFFFFFFFFFFFFFFFFFFFF MUL NOT AND SWAP1 DUP4 PUSH20 0xFFFFFFFFFFFFFFFFFFFFFFFFFFFFFFFFFFFFFFFF AND MUL OR SWAP1 SSTORE POP DUP1 PUSH1 0x8 SWAP1 DUP1 MLOAD SWAP1 PUSH1 0x20 ADD SWAP1 PUSH2 0x4AC SWAP3 SWAP2 SWAP1 PUSH2 0xA7E JUMP JUMPDEST POP DUP7 PUSH1 0x7 DUP2 SWAP1 SSTORE POP DUP2 PUSH1 0x6 PUSH1 0x14 PUSH2 0x100 EXP DUP2 SLOAD DUP2 PUSH1 0xFF MUL NOT AND SWAP1 DUP4 ISZERO ISZERO MUL OR SWAP1 SSTORE POP POP POP POP POP POP POP POP POP POP POP JUMP JUMPDEST PUSH1 0x5 DUP1 SLOAD PUSH2 0x4E7 SWAP1 PUSH2 0x1218 JUMP JUMPDEST DUP1 PUSH1 0x1F ADD PUSH1 0x20 DUP1 SWAP2 DIV MUL PUSH1 0x20 ADD PUSH1 0x40 MLOAD SWAP1 DUP2 ADD PUSH1 0x40 MSTORE DUP1 SWAP3 SWAP2 SWAP1 DUP2 DUP2 MSTORE PUSH1 0x20 ADD DUP3 DUP1 SLOAD PUSH2 0x513 SWAP1 PUSH2 0x1218 JUMP JUMPDEST DUP1 ISZERO PUSH2 0x560 JUMPI DUP1 PUSH1 0x1F LT PUSH2 0x535 JUMPI PUSH2 0x100 DUP1 DUP4 SLOAD DIV MUL DUP4 MSTORE SWAP2 PUSH1 0x20 ADD SWAP2 PUSH2 0x560 JUMP JUMPDEST DUP3 ADD SWAP2 SWAP1 PUSH1 0x0 MSTORE PUSH1 0x20 PUSH1 0x0 KECCAK256 SWAP1 JUMPDEST DUP2 SLOAD DUP2 MSTORE SWAP1 PUSH1 0x1 ADD SWAP1 PUSH1 0x20 ADD DUP1 DUP4 GT PUSH2 0x543 JUMPI DUP3 SWAP1 SUB PUSH1 0x1F AND DUP3 ADD SWAP2 JUMPDEST POP POP POP POP POP DUP2 JUMP JUMPDEST PUSH1 0x8 DUP1 SLOAD PUSH2 0x575 SWAP1 PUSH2 0x1218 JUMP JUMPDEST DUP1 PUSH1 0x1F ADD PUSH1 0x20 DUP1 SWAP2 DIV MUL PUSH1 0x20 ADD PUSH1 0x40 MLOAD SWAP1 DUP2 ADD PUSH1 0x40 MSTORE DUP1 SWAP3 SWAP2 SWAP1 DUP2 DUP2 MSTORE PUSH1 0x20 ADD DUP3 DUP1 SLOAD PUSH2 0x5A1 SWAP1 PUSH2 0x1218 JUMP JUMPDEST DUP1 ISZERO PUSH2 0x5EE JUMPI DUP1 PUSH1 0x1F LT PUSH2 0x5C3 JUMPI PUSH2 0x100 DUP1 DUP4 SLOAD DIV MUL DUP4 MSTORE SWAP2 PUSH1 0x20 ADD SWAP2 PUSH2 0x5EE JUMP JUMPDEST DUP3 ADD SWAP2 SWAP1 PUSH1 0x0 MSTORE PUSH1 0x20 PUSH1 0x0 KECCAK256 SWAP1 JUMPDEST DUP2 SLOAD DUP2 MSTORE SWAP1 PUSH1 0x1 ADD SWAP1 PUSH1 0x20 ADD DUP1 DUP4 GT PUSH2 0x5D1 JUMPI DUP3 SWAP1 SUB PUSH1 0x1F AND DUP3 ADD SWAP2 JUMPDEST POP POP POP POP POP DUP2 JUMP JUMPDEST PUSH1 0x9 DUP1 SLOAD PUSH2 0x603 SWAP1 PUSH2 0x1218 JUMP JUMPDEST DUP1 PUSH1 0x1F ADD PUSH1 0x20 DUP1 SWAP2 DIV MUL PUSH1 0x20 ADD PUSH1 0x40 MLOAD SWAP1 DUP2 ADD PUSH1 0x40 MSTORE DUP1 SWAP3 SWAP2 SWAP1 DUP2 DUP2 MSTORE PUSH1 0x20 ADD DUP3 DUP1 SLOAD PUSH2 0x62F SWAP1 PUSH2 0x1218 JUMP JUMPDEST DUP1 ISZERO PUSH2 0x67C JUMPI DUP1 PUSH1 0x1F LT PUSH2 0x651 JUMPI PUSH2 0x100 DUP1 DUP4 SLOAD DIV MUL DUP4 MSTORE SWAP2 PUSH1 0x20 ADD SWAP2 PUSH2 0x67C JUMP JUMPDEST DUP3 ADD SWAP2 SWAP1 PUSH1 0x0 MSTORE PUSH1 0x20 PUSH1 0x0 KECCAK256 SWAP1 JUMPDEST DUP2 SLOAD DUP2 MSTORE SWAP1 PUSH1 0x1 ADD SWAP1 PUSH1 0x20 ADD DUP1 DUP4 GT PUSH2 0x65F JUMPI DUP3 SWAP1 SUB PUSH1 0x1F AND DUP3 ADD SWAP2 JUMPDEST POP POP POP POP POP DUP2 JUMP JUMPDEST PUSH1 0x0 PUSH1 0x7 SLOAD PUSH1 0x8 PUSH1 0x40 MLOAD PUSH1 0x20 ADD PUSH2 0x69C SWAP3 SWAP2 SWAP1 PUSH2 0x12DE JUMP JUMPDEST PUSH1 0x40 MLOAD PUSH1 0x20 DUP2 DUP4 SUB SUB DUP2 MSTORE SWAP1 PUSH1 0x40 MSTORE SWAP1 POP PUSH1 0x0 PUSH1 0x1 PUSH1 0x0 SWAP1 SLOAD SWAP1 PUSH2 0x100 EXP SWAP1 DIV PUSH20 0xFFFFFFFFFFFFFFFFFFFFFFFFFFFFFFFFFFFFFFFF AND PUSH20 0xFFFFFFFFFFFFFFFFFFFFFFFFFFFFFFFFFFFFFFFF AND PUSH4 0xFA31DE01 PUSH1 0x2 PUSH1 0x14 SWAP1 SLOAD SWAP1 PUSH2 0x100 EXP SWAP1 DIV PUSH4 0xFFFFFFFF AND PUSH2 0x72B PUSH1 0x3 PUSH1 0x0 SWAP1 SLOAD SWAP1 PUSH2 0x100 EXP SWAP1 DIV PUSH20 0xFFFFFFFFFFFFFFFFFFFFFFFFFFFFFFFFFFFFFFFF AND PUSH2 0x9A1 JUMP JUMPDEST DUP6 PUSH1 0x40 MLOAD DUP5 PUSH4 0xFFFFFFFF AND PUSH1 0xE0 SHL DUP2 MSTORE PUSH1 0x4 ADD PUSH2 0x74A SWAP4 SWAP3 SWAP2 SWAP1 PUSH2 0x131D JUMP JUMPDEST PUSH1 0x20 PUSH1 0x40 MLOAD DUP1 DUP4 SUB DUP2 PUSH1 0x0 DUP8 GAS CALL ISZERO DUP1 ISZERO PUSH2 0x769 JUMPI RETURNDATASIZE PUSH1 0x0 DUP1 RETURNDATACOPY RETURNDATASIZE PUSH1 0x0 REVERT JUMPDEST POP POP POP POP PUSH1 0x40 MLOAD RETURNDATASIZE PUSH1 0x1F NOT PUSH1 0x1F DUP3 ADD AND DUP3 ADD DUP1 PUSH1 0x40 MSTORE POP DUP2 ADD SWAP1 PUSH2 0x78D SWAP2 SWAP1 PUSH2 0x135B JUMP JUMPDEST SWAP1 POP PUSH1 0x0 PUSH2 0x799 PUSH2 0x9C4 JUMP JUMPDEST SWAP1 POP PUSH1 0x2 PUSH1 0x0 SWAP1 SLOAD SWAP1 PUSH2 0x100 EXP SWAP1 DIV PUSH20 0xFFFFFFFFFFFFFFFFFFFFFFFFFFFFFFFFFFFFFFFF AND PUSH20 0xFFFFFFFFFFFFFFFFFFFFFFFFFFFFFFFFFFFFFFFF AND PUSH4 0x11BF2C18 DUP3 DUP5 PUSH1 0x2 PUSH1 0x14 SWAP1 SLOAD SWAP1 PUSH2 0x100 EXP SWAP1 DIV PUSH4 0xFFFFFFFF AND PUSH3 0xF6848 CALLER PUSH1 0x40 MLOAD DUP7 PUSH4 0xFFFFFFFF AND PUSH1 0xE0 SHL DUP2 MSTORE PUSH1 0x4 ADD PUSH2 0x812 SWAP5 SWAP4 SWAP3 SWAP2 SWAP1 PUSH2 0x13D7 JUMP JUMPDEST PUSH1 0x0 PUSH1 0x40 MLOAD DUP1 DUP4 SUB DUP2 DUP6 DUP9 DUP1 EXTCODESIZE ISZERO DUP1 ISZERO PUSH2 0x82B JUMPI PUSH1 0x0 DUP1 REVERT JUMPDEST POP GAS CALL ISZERO DUP1 ISZERO PUSH2 0x83F JUMPI RETURNDATASIZE PUSH1 0x0 DUP1 RETURNDATACOPY RETURNDATASIZE PUSH1 0x0 REVERT JUMPDEST POP POP POP POP POP CALLER PUSH20 0xFFFFFFFFFFFFFFFFFFFFFFFFFFFFFFFFFFFFFFFF AND PUSH32 0x8C8B27AB7E2E151570B9CBD2B7A29218C106D0A7274647F513D72DDE2A69C4E0 DUP5 PUSH1 0x40 MLOAD PUSH2 0x88A SWAP2 SWAP1 PUSH2 0xEA0 JUMP JUMPDEST PUSH1 0x40 MLOAD DUP1 SWAP2 SUB SWAP1 LOG2 POP POP POP JUMP JUMPDEST PUSH1 0x0 DUP4 SELFBALANCE LT ISZERO PUSH2 0x8DC JUMPI PUSH1 0x40 MLOAD PUSH32 0x8C379A000000000000000000000000000000000000000000000000000000000 DUP2 MSTORE PUSH1 0x4 ADD PUSH2 0x8D3 SWAP1 PUSH2 0x1468 JUMP JUMPDEST PUSH1 0x40 MLOAD DUP1 SWAP2 SUB SWAP1 REVERT JUMPDEST PUSH1 0x0 DUP3 MLOAD SUB PUSH2 0x920 JUMPI PUSH1 0x40 MLOAD PUSH32 0x8C379A000000000000000000000000000000000000000000000000000000000 DUP2 MSTORE PUSH1 0x4 ADD PUSH2 0x917 SWAP1 PUSH2 0x14D4 JUMP JUMPDEST PUSH1 0x40 MLOAD DUP1 SWAP2 SUB SWAP1 REVERT JUMPDEST DUP3 DUP3 MLOAD PUSH1 0x20 DUP5 ADD DUP7 CREATE2 SWAP1 POP PUSH1 0x0 PUSH20 0xFFFFFFFFFFFFFFFFFFFFFFFFFFFFFFFFFFFFFFFF AND DUP2 PUSH20 0xFFFFFFFFFFFFFFFFFFFFFFFFFFFFFFFFFFFFFFFF AND SUB PUSH2 0x99A JUMPI PUSH1 0x40 MLOAD PUSH32 0x8C379A000000000000000000000000000000000000000000000000000000000 DUP2 MSTORE PUSH1 0x4 ADD PUSH2 0x991 SWAP1 PUSH2 0x1540 JUMP JUMPDEST PUSH1 0x40 MLOAD DUP1 SWAP2 SUB SWAP1 REVERT JUMPDEST SWAP4 SWAP3 POP POP POP JUMP JUMPDEST PUSH1 0x0 DUP2 PUSH20 0xFFFFFFFFFFFFFFFFFFFFFFFFFFFFFFFFFFFFFFFF AND PUSH1 0x0 SHL SWAP1 POP SWAP2 SWAP1 POP JUMP JUMPDEST PUSH1 0x0 PUSH1 0x2 PUSH1 0x0 SWAP1 SLOAD SWAP1 PUSH2 0x100 EXP SWAP1 DIV PUSH20 0xFFFFFFFFFFFFFFFFFFFFFFFFFFFFFFFFFFFFFFFF AND PUSH20 0xFFFFFFFFFFFFFFFFFFFFFFFFFFFFFFFFFFFFFFFF AND PUSH4 0xA6929793 PUSH1 0x2 PUSH1 0x14 SWAP1 SLOAD SWAP1 PUSH2 0x100 EXP SWAP1 DIV PUSH4 0xFFFFFFFF AND PUSH3 0xF6848 PUSH1 0x40 MLOAD DUP4 PUSH4 0xFFFFFFFF AND PUSH1 0xE0 SHL DUP2 MSTORE PUSH1 0x4 ADD PUSH2 0xA38 SWAP3 SWAP2 SWAP1 PUSH2 0x1560 JUMP JUMPDEST PUSH1 0x20 PUSH1 0x40 MLOAD DUP1 DUP4 SUB DUP2 DUP7 GAS STATICCALL ISZERO DUP1 ISZERO PUSH2 0xA55 JUMPI RETURNDATASIZE PUSH1 0x0 DUP1 RETURNDATACOPY RETURNDATASIZE PUSH1 0x0 REVERT JUMPDEST POP POP POP POP PUSH1 0x40 MLOAD RETURNDATASIZE PUSH1 0x1F NOT PUSH1 0x1F DUP3 ADD AND DUP3 ADD DUP1 PUSH1 0x40 MSTORE POP DUP2 ADD SWAP1 PUSH2 0xA79 SWAP2 SWAP1 PUSH2 0x15B5 JUMP JUMPDEST SWAP1 POP SWAP1 JUMP JUMPDEST DUP3 DUP1 SLOAD PUSH2 0xA8A SWAP1 PUSH2 0x1218 JUMP JUMPDEST SWAP1 PUSH1 0x0 MSTORE PUSH1 0x20 PUSH1 0x0 KECCAK256 SWAP1 PUSH1 0x1F ADD PUSH1 0x20 SWAP1 DIV DUP2 ADD SWAP3 DUP3 PUSH2 0xAAC JUMPI PUSH1 0x0 DUP6 SSTORE PUSH2 0xAF3 JUMP JUMPDEST DUP3 PUSH1 0x1F LT PUSH2 0xAC5 JUMPI DUP1 MLOAD PUSH1 0xFF NOT AND DUP4 DUP1 ADD OR DUP6 SSTORE PUSH2 0xAF3 JUMP JUMPDEST DUP3 DUP1 ADD PUSH1 0x1 ADD DUP6 SSTORE DUP3 ISZERO PUSH2 0xAF3 JUMPI SWAP2 DUP3 ADD JUMPDEST DUP3 DUP2 GT ISZERO PUSH2 0xAF2 JUMPI DUP3 MLOAD DUP3 SSTORE SWAP2 PUSH1 0x20 ADD SWAP2 SWAP1 PUSH1 0x1 ADD SWAP1 PUSH2 0xAD7 JUMP JUMPDEST JUMPDEST POP SWAP1 POP PUSH2 0xB00 SWAP2 SWAP1 PUSH2 0xB04 JUMP JUMPDEST POP SWAP1 JUMP JUMPDEST JUMPDEST DUP1 DUP3 GT ISZERO PUSH2 0xB1D JUMPI PUSH1 0x0 DUP2 PUSH1 0x0 SWAP1 SSTORE POP PUSH1 0x1 ADD PUSH2 0xB05 JUMP JUMPDEST POP SWAP1 JUMP JUMPDEST PUSH1 0x0 DUP2 ISZERO ISZERO SWAP1 POP SWAP2 SWAP1 POP JUMP JUMPDEST PUSH2 0xB36 DUP2 PUSH2 0xB21 JUMP JUMPDEST DUP3 MSTORE POP POP JUMP JUMPDEST PUSH1 0x0 PUSH1 0x20 DUP3 ADD SWAP1 POP PUSH2 0xB51 PUSH1 0x0 DUP4 ADD DUP5 PUSH2 0xB2D JUMP JUMPDEST SWAP3 SWAP2 POP POP JUMP JUMPDEST PUSH1 0x0 PUSH20 0xFFFFFFFFFFFFFFFFFFFFFFFFFFFFFFFFFFFFFFFF DUP3 AND SWAP1 POP SWAP2 SWAP1 POP JUMP JUMPDEST PUSH1 0x0 PUSH2 0xB82 DUP3 PUSH2 0xB57 JUMP JUMPDEST SWAP1 POP SWAP2 SWAP1 POP JUMP JUMPDEST PUSH2 0xB92 DUP2 PUSH2 0xB77 JUMP JUMPDEST DUP3 MSTORE POP POP JUMP JUMPDEST PUSH1 0x0 PUSH1 0x20 DUP3 ADD SWAP1 POP PUSH2 0xBAD PUSH1 0x0 DUP4 ADD DUP5 PUSH2 0xB89 JUMP JUMPDEST SWAP3 SWAP2 POP POP JUMP JUMPDEST PUSH1 0x0 DUP2 SWAP1 POP SWAP2 SWAP1 POP JUMP JUMPDEST PUSH2 0xBC6 DUP2 PUSH2 0xBB3 JUMP JUMPDEST DUP3 MSTORE POP POP JUMP JUMPDEST PUSH1 0x0 PUSH1 0x20 DUP3 ADD SWAP1 POP PUSH2 0xBE1 PUSH1 0x0 DUP4 ADD DUP5 PUSH2 0xBBD JUMP JUMPDEST SWAP3 SWAP2 POP POP JUMP JUMPDEST PUSH1 0x0 PUSH1 0x40 MLOAD SWAP1 POP SWAP1 JUMP JUMPDEST PUSH1 0x0 DUP1 REVERT JUMPDEST PUSH1 0x0 DUP1 REVERT JUMPDEST PUSH1 0x0 PUSH4 0xFFFFFFFF DUP3 AND SWAP1 POP SWAP2 SWAP1 POP JUMP JUMPDEST PUSH2 0xC14 DUP2 PUSH2 0xBFB JUMP JUMPDEST DUP2 EQ PUSH2 0xC1F JUMPI PUSH1 0x0 DUP1 REVERT JUMPDEST POP JUMP JUMPDEST PUSH1 0x0 DUP2 CALLDATALOAD SWAP1 POP PUSH2 0xC31 DUP2 PUSH2 0xC0B JUMP JUMPDEST SWAP3 SWAP2 POP POP JUMP JUMPDEST PUSH2 0xC40 DUP2 PUSH2 0xBB3 JUMP JUMPDEST DUP2 EQ PUSH2 0xC4B JUMPI PUSH1 0x0 DUP1 REVERT JUMPDEST POP JUMP JUMPDEST PUSH1 0x0 DUP2 CALLDATALOAD SWAP1 POP PUSH2 0xC5D DUP2 PUSH2 0xC37 JUMP JUMPDEST SWAP3 SWAP2 POP POP JUMP JUMPDEST PUSH1 0x0 DUP1 REVERT JUMPDEST PUSH1 0x0 DUP1 REVERT JUMPDEST PUSH1 0x0 PUSH1 0x1F NOT PUSH1 0x1F DUP4 ADD AND SWAP1 POP SWAP2 SWAP1 POP JUMP JUMPDEST PUSH32 0x4E487B7100000000000000000000000000000000000000000000000000000000 PUSH1 0x0 MSTORE PUSH1 0x41 PUSH1 0x4 MSTORE PUSH1 0x24 PUSH1 0x0 REVERT JUMPDEST PUSH2 0xCB6 DUP3 PUSH2 0xC6D JUMP JUMPDEST DUP2 ADD DUP2 DUP2 LT PUSH8 0xFFFFFFFFFFFFFFFF DUP3 GT OR ISZERO PUSH2 0xCD5 JUMPI PUSH2 0xCD4 PUSH2 0xC7E JUMP JUMPDEST JUMPDEST DUP1 PUSH1 0x40 MSTORE POP POP POP JUMP JUMPDEST PUSH1 0x0 PUSH2 0xCE8 PUSH2 0xBE7 JUMP JUMPDEST SWAP1 POP PUSH2 0xCF4 DUP3 DUP3 PUSH2 0xCAD JUMP JUMPDEST SWAP2 SWAP1 POP JUMP JUMPDEST PUSH1 0x0 PUSH8 0xFFFFFFFFFFFFFFFF DUP3 GT ISZERO PUSH2 0xD14 JUMPI PUSH2 0xD13 PUSH2 0xC7E JUMP JUMPDEST JUMPDEST PUSH2 0xD1D DUP3 PUSH2 0xC6D JUMP JUMPDEST SWAP1 POP PUSH1 0x20 DUP2 ADD SWAP1 POP SWAP2 SWAP1 POP JUMP JUMPDEST DUP3 DUP2 DUP4 CALLDATACOPY PUSH1 0x0 DUP4 DUP4 ADD MSTORE POP POP POP JUMP JUMPDEST PUSH1 0x0 PUSH2 0xD4C PUSH2 0xD47 DUP5 PUSH2 0xCF9 JUMP JUMPDEST PUSH2 0xCDE JUMP JUMPDEST SWAP1 POP DUP3 DUP2 MSTORE PUSH1 0x20 DUP2 ADD DUP5 DUP5 DUP5 ADD GT ISZERO PUSH2 0xD68 JUMPI PUSH2 0xD67 PUSH2 0xC68 JUMP JUMPDEST JUMPDEST PUSH2 0xD73 DUP5 DUP3 DUP6 PUSH2 0xD2A JUMP JUMPDEST POP SWAP4 SWAP3 POP POP POP JUMP JUMPDEST PUSH1 0x0 DUP3 PUSH1 0x1F DUP4 ADD SLT PUSH2 0xD90 JUMPI PUSH2 0xD8F PUSH2 0xC63 JUMP JUMPDEST JUMPDEST DUP2 CALLDATALOAD PUSH2 0xDA0 DUP5 DUP3 PUSH1 0x20 DUP7 ADD PUSH2 0xD39 JUMP JUMPDEST SWAP2 POP POP SWAP3 SWAP2 POP POP JUMP JUMPDEST PUSH1 0x0 DUP1 PUSH1 0x0 PUSH1 0x60 DUP5 DUP7 SUB SLT ISZERO PUSH2 0xDC2 JUMPI PUSH2 0xDC1 PUSH2 0xBF1 JUMP JUMPDEST JUMPDEST PUSH1 0x0 PUSH2 0xDD0 DUP7 DUP3 DUP8 ADD PUSH2 0xC22 JUMP JUMPDEST SWAP4 POP POP PUSH1 0x20 PUSH2 0xDE1 DUP7 DUP3 DUP8 ADD PUSH2 0xC4E JUMP JUMPDEST SWAP3 POP POP PUSH1 0x40 DUP5 ADD CALLDATALOAD PUSH8 0xFFFFFFFFFFFFFFFF DUP2 GT ISZERO PUSH2 0xE02 JUMPI PUSH2 0xE01 PUSH2 0xBF6 JUMP JUMPDEST JUMPDEST PUSH2 0xE0E DUP7 DUP3 DUP8 ADD PUSH2 0xD7B JUMP JUMPDEST SWAP2 POP POP SWAP3 POP SWAP3 POP SWAP3 JUMP JUMPDEST PUSH1 0x0 DUP2 MLOAD SWAP1 POP SWAP2 SWAP1 POP JUMP JUMPDEST PUSH1 0x0 DUP3 DUP3 MSTORE PUSH1 0x20 DUP3 ADD SWAP1 POP SWAP3 SWAP2 POP POP JUMP JUMPDEST PUSH1 0x0 JUMPDEST DUP4 DUP2 LT ISZERO PUSH2 0xE52 JUMPI DUP1 DUP3 ADD MLOAD DUP2 DUP5 ADD MSTORE PUSH1 0x20 DUP2 ADD SWAP1 POP PUSH2 0xE37 JUMP JUMPDEST DUP4 DUP2 GT ISZERO PUSH2 0xE61 JUMPI PUSH1 0x0 DUP5 DUP5 ADD MSTORE JUMPDEST POP POP POP POP JUMP JUMPDEST PUSH1 0x0 PUSH2 0xE72 DUP3 PUSH2 0xE18 JUMP JUMPDEST PUSH2 0xE7C DUP2 DUP6 PUSH2 0xE23 JUMP JUMPDEST SWAP4 POP PUSH2 0xE8C DUP2 DUP6 PUSH1 0x20 DUP7 ADD PUSH2 0xE34 JUMP JUMPDEST PUSH2 0xE95 DUP2 PUSH2 0xC6D JUMP JUMPDEST DUP5 ADD SWAP2 POP POP SWAP3 SWAP2 POP POP JUMP JUMPDEST PUSH1 0x0 PUSH1 0x20 DUP3 ADD SWAP1 POP DUP2 DUP2 SUB PUSH1 0x0 DUP4 ADD MSTORE PUSH2 0xEBA DUP2 DUP5 PUSH2 0xE67 JUMP JUMPDEST SWAP1 POP SWAP3 SWAP2 POP POP JUMP JUMPDEST PUSH1 0x0 DUP3 DUP3 MSTORE PUSH1 0x20 DUP3 ADD SWAP1 POP SWAP3 SWAP2 POP POP JUMP JUMPDEST PUSH32 0x436F6E74726163742062616C616E6365206973207A65726F0000000000000000 PUSH1 0x0 DUP3 ADD MSTORE POP JUMP JUMPDEST PUSH1 0x0 PUSH2 0xF09 PUSH1 0x18 DUP4 PUSH2 0xEC2 JUMP JUMPDEST SWAP2 POP PUSH2 0xF14 DUP3 PUSH2 0xED3 JUMP JUMPDEST PUSH1 0x20 DUP3 ADD SWAP1 POP SWAP2 SWAP1 POP JUMP JUMPDEST PUSH1 0x0 PUSH1 0x20 DUP3 ADD SWAP1 POP DUP2 DUP2 SUB PUSH1 0x0 DUP4 ADD MSTORE PUSH2 0xF38 DUP2 PUSH2 0xEFC JUMP JUMPDEST SWAP1 POP SWAP2 SWAP1 POP JUMP JUMPDEST PUSH32 0x4F6E6C79206D61696C626F782063616E2063616C6C20746869732066756E6374 PUSH1 0x0 DUP3 ADD MSTORE PUSH32 0x696F6E2021212100000000000000000000000000000000000000000000000000 PUSH1 0x20 DUP3 ADD MSTORE POP JUMP JUMPDEST PUSH1 0x0 PUSH2 0xF9B PUSH1 0x27 DUP4 PUSH2 0xEC2 JUMP JUMPDEST SWAP2 POP PUSH2 0xFA6 DUP3 PUSH2 0xF3F JUMP JUMPDEST PUSH1 0x40 DUP3 ADD SWAP1 POP SWAP2 SWAP1 POP JUMP JUMPDEST PUSH1 0x0 PUSH1 0x20 DUP3 ADD SWAP1 POP DUP2 DUP2 SUB PUSH1 0x0 DUP4 ADD MSTORE PUSH2 0xFCA DUP2 PUSH2 0xF8E JUMP JUMPDEST SWAP1 POP SWAP2 SWAP1 POP JUMP JUMPDEST PUSH1 0x0 DUP2 MLOAD SWAP1 POP PUSH2 0xFE0 DUP2 PUSH2 0xC37 JUMP JUMPDEST SWAP3 SWAP2 POP POP JUMP JUMPDEST PUSH1 0x0 PUSH2 0xFF9 PUSH2 0xFF4 DUP5 PUSH2 0xCF9 JUMP JUMPDEST PUSH2 0xCDE JUMP JUMPDEST SWAP1 POP DUP3 DUP2 MSTORE PUSH1 0x20 DUP2 ADD DUP5 DUP5 DUP5 ADD GT ISZERO PUSH2 0x1015 JUMPI PUSH2 0x1014 PUSH2 0xC68 JUMP JUMPDEST JUMPDEST PUSH2 0x1020 DUP5 DUP3 DUP6 PUSH2 0xE34 JUMP JUMPDEST POP SWAP4 SWAP3 POP POP POP JUMP JUMPDEST PUSH1 0x0 DUP3 PUSH1 0x1F DUP4 ADD SLT PUSH2 0x103D JUMPI PUSH2 0x103C PUSH2 0xC63 JUMP JUMPDEST JUMPDEST DUP2 MLOAD PUSH2 0x104D DUP5 DUP3 PUSH1 0x20 DUP7 ADD PUSH2 0xFE6 JUMP JUMPDEST SWAP2 POP POP SWAP3 SWAP2 POP POP JUMP JUMPDEST PUSH1 0x0 PUSH2 0x1061 DUP3 PUSH2 0xB57 JUMP JUMPDEST SWAP1 POP SWAP2 SWAP1 POP JUMP JUMPDEST PUSH2 0x1071 DUP2 PUSH2 0x1056 JUMP JUMPDEST DUP2 EQ PUSH2 0x107C JUMPI PUSH1 0x0 DUP1 REVERT JUMPDEST POP JUMP JUMPDEST PUSH1 0x0 DUP2 MLOAD SWAP1 POP PUSH2 0x108E DUP2 PUSH2 0x1068 JUMP JUMPDEST SWAP3 SWAP2 POP POP JUMP JUMPDEST PUSH1 0x0 DUP1 PUSH1 0x0 DUP1 PUSH1 0x80 DUP6 DUP8 SUB SLT ISZERO PUSH2 0x10AE JUMPI PUSH2 0x10AD PUSH2 0xBF1 JUMP JUMPDEST JUMPDEST PUSH1 0x0 PUSH2 0x10BC DUP8 DUP3 DUP9 ADD PUSH2 0xFD1 JUMP JUMPDEST SWAP5 POP POP PUSH1 0x20 DUP6 ADD MLOAD PUSH8 0xFFFFFFFFFFFFFFFF DUP2 GT ISZERO PUSH2 0x10DD JUMPI PUSH2 0x10DC PUSH2 0xBF6 JUMP JUMPDEST JUMPDEST PUSH2 0x10E9 DUP8 DUP3 DUP9 ADD PUSH2 0x1028 JUMP JUMPDEST SWAP4 POP POP PUSH1 0x40 DUP6 ADD MLOAD PUSH8 0xFFFFFFFFFFFFFFFF DUP2 GT ISZERO PUSH2 0x110A JUMPI PUSH2 0x1109 PUSH2 0xBF6 JUMP JUMPDEST JUMPDEST PUSH2 0x1116 DUP8 DUP3 DUP9 ADD PUSH2 0x1028 JUMP JUMPDEST SWAP3 POP POP PUSH1 0x60 PUSH2 0x1127 DUP8 DUP3 DUP9 ADD PUSH2 0x107F JUMP JUMPDEST SWAP2 POP POP SWAP3 SWAP6 SWAP2 SWAP5 POP SWAP3 POP JUMP JUMPDEST PUSH1 0x0 DUP2 PUSH1 0x60 SHL SWAP1 POP SWAP2 SWAP1 POP JUMP JUMPDEST PUSH1 0x0 PUSH2 0x114B DUP3 PUSH2 0x1133 JUMP JUMPDEST SWAP1 POP SWAP2 SWAP1 POP JUMP JUMPDEST PUSH1 0x0 PUSH2 0x115D DUP3 PUSH2 0x1140 JUMP JUMPDEST SWAP1 POP SWAP2 SWAP1 POP JUMP JUMPDEST PUSH2 0x1175 PUSH2 0x1170 DUP3 PUSH2 0xB77 JUMP JUMPDEST PUSH2 0x1152 JUMP JUMPDEST DUP3 MSTORE POP POP JUMP JUMPDEST PUSH1 0x0 PUSH2 0x1187 DUP3 DUP5 PUSH2 0x1164 JUMP JUMPDEST PUSH1 0x14 DUP3 ADD SWAP2 POP DUP2 SWAP1 POP SWAP3 SWAP2 POP POP JUMP JUMPDEST PUSH1 0x0 DUP2 SWAP1 POP SWAP3 SWAP2 POP POP JUMP JUMPDEST PUSH1 0x0 PUSH2 0x11AC DUP3 PUSH2 0xE18 JUMP JUMPDEST PUSH2 0x11B6 DUP2 DUP6 PUSH2 0x1196 JUMP JUMPDEST SWAP4 POP PUSH2 0x11C6 DUP2 DUP6 PUSH1 0x20 DUP7 ADD PUSH2 0xE34 JUMP JUMPDEST DUP1 DUP5 ADD SWAP2 POP POP SWAP3 SWAP2 POP POP JUMP JUMPDEST PUSH1 0x0 PUSH2 0x11DE DUP3 DUP5 PUSH2 0x11A1 JUMP JUMPDEST SWAP2 POP DUP2 SWAP1 POP SWAP3 SWAP2 POP POP JUMP JUMPDEST PUSH32 0x4E487B7100000000000000000000000000000000000000000000000000000000 PUSH1 0x0 MSTORE PUSH1 0x22 PUSH1 0x4 MSTORE PUSH1 0x24 PUSH1 0x0 REVERT JUMPDEST PUSH1 0x0 PUSH1 0x2 DUP3 DIV SWAP1 POP PUSH1 0x1 DUP3 AND DUP1 PUSH2 0x1230 JUMPI PUSH1 0x7F DUP3 AND SWAP2 POP JUMPDEST PUSH1 0x20 DUP3 LT DUP2 SUB PUSH2 0x1243 JUMPI PUSH2 0x1242 PUSH2 0x11E9 JUMP JUMPDEST JUMPDEST POP SWAP2 SWAP1 POP JUMP JUMPDEST PUSH1 0x0 DUP2 SWAP1 POP DUP2 PUSH1 0x0 MSTORE PUSH1 0x20 PUSH1 0x0 KECCAK256 SWAP1 POP SWAP2 SWAP1 POP JUMP JUMPDEST PUSH1 0x0 DUP2 SLOAD PUSH2 0x126B DUP2 PUSH2 0x1218 JUMP JUMPDEST PUSH2 0x1275 DUP2 DUP7 PUSH2 0xE23 JUMP JUMPDEST SWAP5 POP PUSH1 0x1 DUP3 AND PUSH1 0x0 DUP2 EQ PUSH2 0x1290 JUMPI PUSH1 0x1 DUP2 EQ PUSH2 0x12A2 JUMPI PUSH2 0x12D5 JUMP JUMPDEST PUSH1 0xFF NOT DUP4 AND DUP7 MSTORE PUSH1 0x20 DUP7 ADD SWAP4 POP PUSH2 0x12D5 JUMP JUMPDEST PUSH2 0x12AB DUP6 PUSH2 0x1249 JUMP JUMPDEST PUSH1 0x0 JUMPDEST DUP4 DUP2 LT ISZERO PUSH2 0x12CD JUMPI DUP2 SLOAD DUP2 DUP10 ADD MSTORE PUSH1 0x1 DUP3 ADD SWAP2 POP PUSH1 0x20 DUP2 ADD SWAP1 POP PUSH2 0x12AE JUMP JUMPDEST DUP1 DUP9 ADD SWAP6 POP POP POP JUMPDEST POP POP POP SWAP3 SWAP2 POP POP JUMP JUMPDEST PUSH1 0x0 PUSH1 0x40 DUP3 ADD SWAP1 POP PUSH2 0x12F3 PUSH1 0x0 DUP4 ADD DUP6 PUSH2 0xBBD JUMP JUMPDEST DUP2 DUP2 SUB PUSH1 0x20 DUP4 ADD MSTORE PUSH2 0x1305 DUP2 DUP5 PUSH2 0x125E JUMP JUMPDEST SWAP1 POP SWAP4 SWAP3 POP POP POP JUMP JUMPDEST PUSH2 0x1317 DUP2 PUSH2 0xBFB JUMP JUMPDEST DUP3 MSTORE POP POP JUMP JUMPDEST PUSH1 0x0 PUSH1 0x60 DUP3 ADD SWAP1 POP PUSH2 0x1332 PUSH1 0x0 DUP4 ADD DUP7 PUSH2 0x130E JUMP JUMPDEST PUSH2 0x133F PUSH1 0x20 DUP4 ADD DUP6 PUSH2 0xBBD JUMP JUMPDEST DUP2 DUP2 SUB PUSH1 0x40 DUP4 ADD MSTORE PUSH2 0x1351 DUP2 DUP5 PUSH2 0xE67 JUMP JUMPDEST SWAP1 POP SWAP5 SWAP4 POP POP POP POP JUMP JUMPDEST PUSH1 0x0 PUSH1 0x20 DUP3 DUP5 SUB SLT ISZERO PUSH2 0x1371 JUMPI PUSH2 0x1370 PUSH2 0xBF1 JUMP JUMPDEST JUMPDEST PUSH1 0x0 PUSH2 0x137F DUP5 DUP3 DUP6 ADD PUSH2 0xFD1 JUMP JUMPDEST SWAP2 POP POP SWAP3 SWAP2 POP POP JUMP JUMPDEST PUSH1 0x0 DUP2 SWAP1 POP SWAP2 SWAP1 POP JUMP JUMPDEST PUSH1 0x0 DUP2 SWAP1 POP SWAP2 SWAP1 POP JUMP JUMPDEST PUSH1 0x0 DUP2 SWAP1 POP SWAP2 SWAP1 POP JUMP JUMPDEST PUSH1 0x0 PUSH2 0x13C1 PUSH2 0x13BC PUSH2 0x13B7 DUP5 PUSH2 0x1388 JUMP JUMPDEST PUSH2 0x139C JUMP JUMPDEST PUSH2 0x1392 JUMP JUMPDEST SWAP1 POP SWAP2 SWAP1 POP JUMP JUMPDEST PUSH2 0x13D1 DUP2 PUSH2 0x13A6 JUMP JUMPDEST DUP3 MSTORE POP POP JUMP JUMPDEST PUSH1 0x0 PUSH1 0x80 DUP3 ADD SWAP1 POP PUSH2 0x13EC PUSH1 0x0 DUP4 ADD DUP8 PUSH2 0xBBD JUMP JUMPDEST PUSH2 0x13F9 PUSH1 0x20 DUP4 ADD DUP7 PUSH2 0x130E JUMP JUMPDEST PUSH2 0x1406 PUSH1 0x40 DUP4 ADD DUP6 PUSH2 0x13C8 JUMP JUMPDEST PUSH2 0x1413 PUSH1 0x60 DUP4 ADD DUP5 PUSH2 0xB89 JUMP JUMPDEST SWAP6 SWAP5 POP POP POP POP POP JUMP JUMPDEST PUSH32 0x437265617465323A20696E73756666696369656E742062616C616E6365000000 PUSH1 0x0 DUP3 ADD MSTORE POP JUMP JUMPDEST PUSH1 0x0 PUSH2 0x1452 PUSH1 0x1D DUP4 PUSH2 0xEC2 JUMP JUMPDEST SWAP2 POP PUSH2 0x145D DUP3 PUSH2 0x141C JUMP JUMPDEST PUSH1 0x20 DUP3 ADD SWAP1 POP SWAP2 SWAP1 POP JUMP JUMPDEST PUSH1 0x0 PUSH1 0x20 DUP3 ADD SWAP1 POP DUP2 DUP2 SUB PUSH1 0x0 DUP4 ADD MSTORE PUSH2 0x1481 DUP2 PUSH2 0x1445 JUMP JUMPDEST SWAP1 POP SWAP2 SWAP1 POP JUMP JUMPDEST PUSH32 0x437265617465323A2062797465636F6465206C656E677468206973207A65726F PUSH1 0x0 DUP3 ADD MSTORE POP JUMP JUMPDEST PUSH1 0x0 PUSH2 0x14BE PUSH1 0x20 DUP4 PUSH2 0xEC2 JUMP JUMPDEST SWAP2 POP PUSH2 0x14C9 DUP3 PUSH2 0x1488 JUMP JUMPDEST PUSH1 0x20 DUP3 ADD SWAP1 POP SWAP2 SWAP1 POP JUMP JUMPDEST PUSH1 0x0 PUSH1 0x20 DUP3 ADD SWAP1 POP DUP2 DUP2 SUB PUSH1 0x0 DUP4 ADD MSTORE PUSH2 0x14ED DUP2 PUSH2 0x14B1 JUMP JUMPDEST SWAP1 POP SWAP2 SWAP1 POP JUMP JUMPDEST PUSH32 0x437265617465323A204661696C6564206F6E206465706C6F7900000000000000 PUSH1 0x0 DUP3 ADD MSTORE POP JUMP JUMPDEST PUSH1 0x0 PUSH2 0x152A PUSH1 0x19 DUP4 PUSH2 0xEC2 JUMP JUMPDEST SWAP2 POP PUSH2 0x1535 DUP3 PUSH2 0x14F4 JUMP JUMPDEST PUSH1 0x20 DUP3 ADD SWAP1 POP SWAP2 SWAP1 POP JUMP JUMPDEST PUSH1 0x0 PUSH1 0x20 DUP3 ADD SWAP1 POP DUP2 DUP2 SUB PUSH1 0x0 DUP4 ADD MSTORE PUSH2 0x1559 DUP2 PUSH2 0x151D JUMP JUMPDEST SWAP1 POP SWAP2 SWAP1 POP JUMP JUMPDEST PUSH1 0x0 PUSH1 0x40 DUP3 ADD SWAP1 POP PUSH2 0x1575 PUSH1 0x0 DUP4 ADD DUP6 PUSH2 0x130E JUMP JUMPDEST PUSH2 0x1582 PUSH1 0x20 DUP4 ADD DUP5 PUSH2 0x13C8 JUMP JUMPDEST SWAP4 SWAP3 POP POP POP JUMP JUMPDEST PUSH2 0x1592 DUP2 PUSH2 0x1392 JUMP JUMPDEST DUP2 EQ PUSH2 0x159D JUMPI PUSH1 0x0 DUP1 REVERT JUMPDEST POP JUMP JUMPDEST PUSH1 0x0 DUP2 MLOAD SWAP1 POP PUSH2 0x15AF DUP2 PUSH2 0x1589 JUMP JUMPDEST SWAP3 SWAP2 POP POP JUMP JUMPDEST PUSH1 0x0 PUSH1 0x20 DUP3 DUP5 SUB SLT ISZERO PUSH2 0x15CB JUMPI PUSH2 0x15CA PUSH2 0xBF1 JUMP JUMPDEST JUMPDEST PUSH1 0x0 PUSH2 0x15D9 DUP5 DUP3 DUP6 ADD PUSH2 0x15A0 JUMP JUMPDEST SWAP2 POP POP SWAP3 SWAP2 POP POP JUMP INVALID LOG2 PUSH5 0x6970667358 0x22 SLT KECCAK256 MULMOD 0x5F DUP3 0xDE 0xE5 0xB8 DUP3 TIMESTAMP SELFDESTRUCT PUSH25 0x5C14D8159589222C4DFC422679D64D01F65DC45C4D2364736F PUSH13 0x634300080E0033000000000000 "},"methodIdentifiers":{"_data()":"68beab3f","_deployedAddress()":"12619b86","_encodedFunctionData()":"9a959426","_uuid()":"1beddccf","handle(uint32,bytes32,bytes)":"56d5d475","result()":"65372147","sendResult()":"bc4d7396","success()":"0b93381b","withdraw()":"3ccfd60b"}}}}}