{
  "_format": "hh-sol-artifact-1",
  "contractName": "MessageRouter",
  "sourceName": "contracts/MessageRouter.sol",
  "address": "0xF84658D28f2f0BFB5d9EA6b135bb2A381718Cb69",
  "abi": [
    {
      "inputs": [
        {
          "internalType": "address",
          "name": "_senderMailbox",
          "type": "address"
        },
        {
          "internalType": "address",
          "name": "_receiverMailbox",
          "type": "address"
        },
        {
          "internalType": "address",
          "name": "_senderInterchainGasPaymaster",
          "type": "address"
        },
        {
          "internalType": "uint32",
          "name": "_senderDomainId",
          "type": "uint32"
        },
        {
          "internalType": "address",
          "name": "_messageMainContract",
          "type": "address"
        }
      ],
      "stateMutability": "nonpayable",
      "type": "constructor"
    },
    {
      "anonymous": false,
      "inputs": [
        {
          "indexed": false,
          "internalType": "bytes32",
          "name": "uuid",
          "type": "bytes32"
        },
        {
          "indexed": false,
          "internalType": "string",
          "name": "sourceFunction",
          "type": "string"
        },
        {
          "indexed": false,
          "internalType": "bytes",
          "name": "data",
          "type": "bytes"
        }
      ],
      "name": "CallbackCreated",
      "type": "event"
    },
    {
      "anonymous": false,
      "inputs": [
        {
          "indexed": false,
          "internalType": "bytes32",
          "name": "uuid",
          "type": "bytes32"
        },
        {
          "indexed": true,
          "internalType": "address",
          "name": "Executer",
          "type": "address"
        },
        {
          "indexed": false,
          "internalType": "bytes",
          "name": "callData",
          "type": "bytes"
        }
      ],
      "name": "dispatchCallCreated",
      "type": "event"
    },
    {
      "inputs": [],
      "name": "_data",
      "outputs": [
        {
          "internalType": "bytes",
          "name": "",
          "type": "bytes"
        }
      ],
      "stateMutability": "view",
      "type": "function"
    },
    {
      "inputs": [],
      "name": "_uuid",
      "outputs": [
        {
          "internalType": "bytes32",
          "name": "",
          "type": "bytes32"
        }
      ],
      "stateMutability": "view",
      "type": "function"
    },
    {
      "inputs": [
        {
          "internalType": "uint32",
          "name": "_origin",
          "type": "uint32"
        },
        {
          "internalType": "bytes32",
          "name": "_sender",
          "type": "bytes32"
        },
        {
          "internalType": "bytes",
          "name": "_result",
          "type": "bytes"
        }
      ],
      "name": "handle",
      "outputs": [],
      "stateMutability": "nonpayable",
      "type": "function"
    },
    {
      "inputs": [
        {
          "internalType": "bytes",
          "name": "_byteCode",
          "type": "bytes"
        },
        {
          "internalType": "bytes",
          "name": "_encodedFunctionData",
          "type": "bytes"
        }
      ],
      "name": "sendMessage",
      "outputs": [],
      "stateMutability": "payable",
      "type": "function"
    },
    {
      "inputs": [],
      "name": "withdraw",
      "outputs": [],
      "stateMutability": "nonpayable",
      "type": "function"
    }
  ],
  "bytecode": "0x60806040523480156200001157600080fd5b506040516200138e3803806200138e833981810160405281019062000037919062000211565b846000806101000a81548173ffffffffffffffffffffffffffffffffffffffff021916908373ffffffffffffffffffffffffffffffffffffffff16021790555083600160006101000a81548173ffffffffffffffffffffffffffffffffffffffff021916908373ffffffffffffffffffffffffffffffffffffffff16021790555082600260006101000a81548173ffffffffffffffffffffffffffffffffffffffff021916908373ffffffffffffffffffffffffffffffffffffffff16021790555081600260146101000a81548163ffffffff021916908363ffffffff16021790555080600360006101000a81548173ffffffffffffffffffffffffffffffffffffffff021916908373ffffffffffffffffffffffffffffffffffffffff160217905550505050505062000299565b600080fd5b600073ffffffffffffffffffffffffffffffffffffffff82169050919050565b600062000198826200016b565b9050919050565b620001aa816200018b565b8114620001b657600080fd5b50565b600081519050620001ca816200019f565b92915050565b600063ffffffff82169050919050565b620001eb81620001d0565b8114620001f757600080fd5b50565b6000815190506200020b81620001e0565b92915050565b600080600080600060a0868803121562000230576200022f62000166565b5b60006200024088828901620001b9565b95505060206200025388828901620001b9565b94505060406200026688828901620001b9565b93505060606200027988828901620001fa565b92505060806200028c88828901620001b9565b9150509295509295909350565b6110e580620002a96000396000f3fe60806040526004361061004a5760003560e01c80631beddccf1461004f5780633ccfd60b1461007a57806348e6fa231461009157806356d5d475146100ad57806368beab3f146100d6575b600080fd5b34801561005b57600080fd5b50610064610101565b6040516100719190610707565b60405180910390f35b34801561008657600080fd5b5061008f610107565b005b6100ab60048036038101906100a691906108dc565b610199565b005b3480156100b957600080fd5b506100d460048036038101906100cf91906109c0565b610410565b005b3480156100e257600080fd5b506100eb6104e0565b6040516100f89190610ab7565b60405180910390f35b60045481565b60004790506000811161014f576040517f08c379a000000000000000000000000000000000000000000000000000000000815260040161014690610b36565b60405180910390fd5b3373ffffffffffffffffffffffffffffffffffffffff166108fc829081150290604051600060405180830381858888f19350505050158015610195573d6000803e3d6000fd5b5050565b600043600036600660008154809291906101b290610b8f565b919050556040516020016101c99493929190610c28565b604051602081830303815290604052805190602001209050600760008281526020019081526020016000205060008185858530604051602001610210959493929190610cd1565b604051602081830303815290604052905060008060009054906101000a900473ffffffffffffffffffffffffffffffffffffffff1673ffffffffffffffffffffffffffffffffffffffff1663fa31de01600260149054906101000a900463ffffffff1661029e600360009054906101000a900473ffffffffffffffffffffffffffffffffffffffff1661056e565b856040518463ffffffff1660e01b81526004016102bd93929190610d35565b6020604051808303816000875af11580156102dc573d6000803e3d6000fd5b505050506040513d601f19601f820116820180604052508101906103009190610d88565b9050600061030c610591565b9050600260009054906101000a900473ffffffffffffffffffffffffffffffffffffffff1673ffffffffffffffffffffffffffffffffffffffff166311bf2c188284600260149054906101000a900463ffffffff16620f6848336040518663ffffffff1660e01b81526004016103859493929190610dfa565b6000604051808303818588803b15801561039e57600080fd5b505af11580156103b2573d6000803e3d6000fd5b50505050503373ffffffffffffffffffffffffffffffffffffffff167fafa62105ca2541f085db083bc4d421addbe6be3b6bb940ddf02520a6882166e985856040516103ff929190610e3f565b60405180910390a250505050505050565b600160009054906101000a900473ffffffffffffffffffffffffffffffffffffffff1673ffffffffffffffffffffffffffffffffffffffff163373ffffffffffffffffffffffffffffffffffffffff16146104a0576040517f08c379a000000000000000000000000000000000000000000000000000000000815260040161049790610ee1565b60405180910390fd5b600080828060200190518101906104b79190610f71565b915091508160048190555080600590805190602001906104d892919061064b565b505050505050565b600580546104ed90610ffc565b80601f016020809104026020016040519081016040528092919081815260200182805461051990610ffc565b80156105665780601f1061053b57610100808354040283529160200191610566565b820191906000526020600020905b81548152906001019060200180831161054957829003601f168201915b505050505081565b60008173ffffffffffffffffffffffffffffffffffffffff1660001b9050919050565b6000600260009054906101000a900473ffffffffffffffffffffffffffffffffffffffff1673ffffffffffffffffffffffffffffffffffffffff1663a6929793600260149054906101000a900463ffffffff16620f68486040518363ffffffff1660e01b815260040161060592919061102d565b602060405180830381865afa158015610622573d6000803e3d6000fd5b505050506040513d601f19601f820116820180604052508101906106469190611082565b905090565b82805461065790610ffc565b90600052602060002090601f01602090048101928261067957600085556106c0565b82601f1061069257805160ff19168380011785556106c0565b828001600101855582156106c0579182015b828111156106bf5782518255916020019190600101906106a4565b5b5090506106cd91906106d1565b5090565b5b808211156106ea5760008160009055506001016106d2565b5090565b6000819050919050565b610701816106ee565b82525050565b600060208201905061071c60008301846106f8565b92915050565b6000604051905090565b600080fd5b600080fd5b600080fd5b600080fd5b6000601f19601f8301169050919050565b7f4e487b7100000000000000000000000000000000000000000000000000000000600052604160045260246000fd5b61078982610740565b810181811067ffffffffffffffff821117156107a8576107a7610751565b5b80604052505050565b60006107bb610722565b90506107c78282610780565b919050565b600067ffffffffffffffff8211156107e7576107e6610751565b5b6107f082610740565b9050602081019050919050565b82818337600083830152505050565b600061081f61081a846107cc565b6107b1565b90508281526020810184848401111561083b5761083a61073b565b5b6108468482856107fd565b509392505050565b600082601f83011261086357610862610736565b5b813561087384826020860161080c565b91505092915050565b600080fd5b600080fd5b60008083601f84011261089c5761089b610736565b5b8235905067ffffffffffffffff8111156108b9576108b861087c565b5b6020830191508360018202830111156108d5576108d4610881565b5b9250929050565b6000806000604084860312156108f5576108f461072c565b5b600084013567ffffffffffffffff81111561091357610912610731565b5b61091f8682870161084e565b935050602084013567ffffffffffffffff8111156109405761093f610731565b5b61094c86828701610886565b92509250509250925092565b600063ffffffff82169050919050565b61097181610958565b811461097c57600080fd5b50565b60008135905061098e81610968565b92915050565b61099d816106ee565b81146109a857600080fd5b50565b6000813590506109ba81610994565b92915050565b6000806000606084860312156109d9576109d861072c565b5b60006109e78682870161097f565b93505060206109f8868287016109ab565b925050604084013567ffffffffffffffff811115610a1957610a18610731565b5b610a258682870161084e565b9150509250925092565b600081519050919050565b600082825260208201905092915050565b60005b83811015610a69578082015181840152602081019050610a4e565b83811115610a78576000848401525b50505050565b6000610a8982610a2f565b610a938185610a3a565b9350610aa3818560208601610a4b565b610aac81610740565b840191505092915050565b60006020820190508181036000830152610ad18184610a7e565b905092915050565b600082825260208201905092915050565b7f436f6e74726163742062616c616e6365206973207a65726f0000000000000000600082015250565b6000610b20601883610ad9565b9150610b2b82610aea565b602082019050919050565b60006020820190508181036000830152610b4f81610b13565b9050919050565b7f4e487b7100000000000000000000000000000000000000000000000000000000600052601160045260246000fd5b6000819050919050565b6000610b9a82610b85565b91507fffffffffffffffffffffffffffffffffffffffffffffffffffffffffffffffff8203610bcc57610bcb610b56565b5b600182019050919050565b6000819050919050565b610bf2610bed82610b85565b610bd7565b82525050565b600081905092915050565b6000610c0f8385610bf8565b9350610c1c8385846107fd565b82840190509392505050565b6000610c348287610be1565b602082019150610c45828587610c03565b9150610c518284610be1565b60208201915081905095945050505050565b6000610c6f8385610a3a565b9350610c7c8385846107fd565b610c8583610740565b840190509392505050565b600073ffffffffffffffffffffffffffffffffffffffff82169050919050565b6000610cbb82610c90565b9050919050565b610ccb81610cb0565b82525050565b6000608082019050610ce660008301886106f8565b8181036020830152610cf88187610a7e565b90508181036040830152610d0d818587610c63565b9050610d1c6060830184610cc2565b9695505050505050565b610d2f81610958565b82525050565b6000606082019050610d4a6000830186610d26565b610d5760208301856106f8565b8181036040830152610d698184610a7e565b9050949350505050565b600081519050610d8281610994565b92915050565b600060208284031215610d9e57610d9d61072c565b5b6000610dac84828501610d73565b91505092915050565b6000819050919050565b6000819050919050565b6000610de4610ddf610dda84610db5565b610dbf565b610b85565b9050919050565b610df481610dc9565b82525050565b6000608082019050610e0f60008301876106f8565b610e1c6020830186610d26565b610e296040830185610deb565b610e366060830184610cc2565b95945050505050565b6000604082019050610e5460008301856106f8565b8181036020830152610e668184610a7e565b90509392505050565b7f4f6e6c79206d61696c626f782063616e2063616c6c20746869732066756e637460008201527f696f6e2021212100000000000000000000000000000000000000000000000000602082015250565b6000610ecb602783610ad9565b9150610ed682610e6f565b604082019050919050565b60006020820190508181036000830152610efa81610ebe565b9050919050565b6000610f14610f0f846107cc565b6107b1565b905082815260208101848484011115610f3057610f2f61073b565b5b610f3b848285610a4b565b509392505050565b600082601f830112610f5857610f57610736565b5b8151610f68848260208601610f01565b91505092915050565b60008060408385031215610f8857610f8761072c565b5b6000610f9685828601610d73565b925050602083015167ffffffffffffffff811115610fb757610fb6610731565b5b610fc385828601610f43565b9150509250929050565b7f4e487b7100000000000000000000000000000000000000000000000000000000600052602260045260246000fd5b6000600282049050600182168061101457607f821691505b60208210810361102757611026610fcd565b5b50919050565b60006040820190506110426000830185610d26565b61104f6020830184610deb565b9392505050565b61105f81610b85565b811461106a57600080fd5b50565b60008151905061107c81611056565b92915050565b6000602082840312156110985761109761072c565b5b60006110a68482850161106d565b9150509291505056fea26469706673582212204fd184a4444f799702c886ea675cd66bc666cf1eb1acde6edba34c58b939f70e64736f6c634300080e0033",
  "linkReferences": {},
  "deployedLinkReferences": {}
}